:0200000007fff8
:0200010007fff7
:0200020007fff6
:0200030007fff5
:0200040007fff4
:0200050007fff3
:0200060007fff2
:0200070007fff1
:0200080007fff0
:0200090007ffef
:02000a0007ffee
:02000b0007ffed
:02000c0007ffec
:02000d0007ffeb
:02000e0007ffea
:02000f0007ffe9
:0200100007ffe8
:0200110007ffe7
:0200120007ffe6
:0200130007ffe5
:0200140007ffe4
:0200150007ffe3
:0200160007ffe2
:0200170007ffe1
:0200180007ffe0
:0200190007ffdf
:02001a0007ffde
:02001b0007ffdd
:02001c0007ffdc
:02001d0007fedc
:02001e0007fedb
:02001f0007feda
:0200200007fed9
:0200210007fed8
:0200220007fed7
:0200230007fed6
:0200240007fed5
:0200250007fed4
:0200260007fed3
:0200270007fed2
:0200280007fed1
:0200290007fed0
:02002a0007fecf
:02002b0007fece
:02002c0007fecd
:02002d0007fecc
:02002e0007fecb
:02002f0007feca
:0200300007fec9
:0200310007fec8
:0200320007fdc8
:0200330007fdc7
:0200340007fdc6
:0200350007fdc5
:0200360007fdc4
:0200370007fdc3
:0200380007fdc2
:0200390007fdc1
:02003a0007fdc0
:02003b0007fdbf
:02003c0007fdbe
:02003d0007fdbd
:02003e0007fdbc
:02003f0007fdbb
:0200400007fdba
:0200410007fcba
:0200420007fcb9
:0200430007fcb8
:0200440007fcb7
:0200450007fcb6
:0200460007fcb5
:0200470007fcb4
:0200480007fcb3
:0200490007fcb2
:02004a0007fcb1
:02004b0007fcb0
:02004c0007fcaf
:02004d0007fbaf
:02004e0007fbae
:02004f0007fbad
:0200500007fbac
:0200510007fbab
:0200520007fbaa
:0200530007fba9
:0200540007fba8
:0200550007fba7
:0200560007fba6
:0200570007faa6
:0200580007faa5
:0200590007faa4
:02005a0007faa3
:02005b0007faa2
:02005c0007faa1
:02005d0007faa0
:02005e0007fa9f
:02005f0007fa9e
:0200600007f99e
:0200610007f99d
:0200620007f99c
:0200630007f99b
:0200640007f99a
:0200650007f999
:0200660007f998
:0200670007f997
:0200680007f897
:0200690007f896
:02006a0007f895
:02006b0007f894
:02006c0007f893
:02006d0007f892
:02006e0007f891
:02006f0007f890
:0200700007f790
:0200710007f78f
:0200720007f78e
:0200730007f78d
:0200740007f78c
:0200750007f78b
:0200760007f78a
:0200770007f68a
:0200780007f689
:0200790007f688
:02007a0007f687
:02007b0007f686
:02007c0007f685
:02007d0007f684
:02007e0007f584
:02007f0007f583
:0200800007f582
:0200810007f581
:0200820007f580
:0200830007f57f
:0200840007f57e
:0200850007f47e
:0200860007f47d
:0200870007f47c
:0200880007f47b
:0200890007f47a
:02008a0007f479
:02008b0007f379
:02008c0007f378
:02008d0007f377
:02008e0007f376
:02008f0007f375
:0200900007f374
:0200910007f274
:0200920007f273
:0200930007f272
:0200940007f271
:0200950007f270
:0200960007f170
:0200970007f16f
:0200980007f16e
:0200990007f16d
:02009a0007f16c
:02009b0007f16b
:02009c0007f06b
:02009d0007f06a
:02009e0007f069
:02009f0007f068
:0200a00007f067
:0200a10007ef67
:0200a20007ef66
:0200a30007ef65
:0200a40007ef64
:0200a50007ef63
:0200a60007ee63
:0200a70007ee62
:0200a80007ee61
:0200a90007ee60
:0200aa0007ee5f
:0200ab0007ed5f
:0200ac0007ed5e
:0200ad0007ed5d
:0200ae0007ed5c
:0200af0007ed5b
:0200b00007ec5b
:0200b10007ec5a
:0200b20007ec59
:0200b30007ec58
:0200b40007ec57
:0200b50007eb57
:0200b60007eb56
:0200b70007eb55
:0200b80007eb54
:0200b90007ea54
:0200ba0007ea53
:0200bb0007ea52
:0200bc0007ea51
:0200bd0007ea50
:0200be0007e950
:0200bf0007e94f
:0200c00007e94e
:0200c10007e94d
:0200c20007e84d
:0200c30007e84c
:0200c40007e84b
:0200c50007e84a
:0200c60007e74a
:0200c70007e749
:0200c80007e748
:0200c90007e747
:0200ca0007e647
:0200cb0007e646
:0200cc0007e645
:0200cd0007e644
:0200ce0007e643
:0200cf0007e543
:0200d00007e542
:0200d10007e541
:0200d20007e540
:0200d30007e440
:0200d40007e43f
:0200d50007e43e
:0200d60007e33e
:0200d70007e33d
:0200d80007e33c
:0200d90007e33b
:0200da0007e23b
:0200db0007e23a
:0200dc0007e239
:0200dd0007e238
:0200de0007e138
:0200df0007e137
:0200e00007e136
:0200e10007e135
:0200e20007e035
:0200e30007e034
:0200e40007e033
:0200e50007e032
:0200e60007df32
:0200e70007df31
:0200e80007df30
:0200e90007de30
:0200ea0007de2f
:0200eb0007de2e
:0200ec0007de2d
:0200ed0007dd2d
:0200ee0007dd2c
:0200ef0007dd2b
:0200f00007dc2b
:0200f10007dc2a
:0200f20007dc29
:0200f30007dc28
:0200f40007db28
:0200f50007db27
:0200f60007db26
:0200f70007da26
:0200f80007da25
:0200f90007da24
:0200fa0007d924
:0200fb0007d923
:0200fc0007d922
:0200fd0007d921
:0200fe0007d821
:0200ff0007d820
:0201000007d81e
:0201010007d71e
:0201020007d71d
:0201030007d71c
:0201040007d61c
:0201050007d61b
:0201060007d61a
:0201070007d51a
:0201080007d519
:0201090007d518
:02010a0007d517
:02010b0007d417
:02010c0007d416
:02010d0007d415
:02010e0007d315
:02010f0007d314
:0201100007d313
:0201110007d213
:0201120007d212
:0201130007d211
:0201140007d111
:0201150007d110
:0201160007d10f
:0201170007d00f
:0201180007d00e
:0201190007d00d
:02011a0007cf0d
:02011b0007cf0c
:02011c0007cf0b
:02011d0007ce0b
:02011e0007ce0a
:02011f0007ce09
:0201200007cd09
:0201210007cd08
:0201220007cd07
:0201230007cc07
:0201240007cc06
:0201250007cc05
:0201260007cb05
:0201270007cb04
:0201280007ca04
:0201290007ca03
:02012a0007ca02
:02012b0007c902
:02012c0007c901
:02012d0007c900
:02012e0007c800
:02012f0007c8ff
:0201300007c8fe
:0201310007c7fe
:0201320007c7fd
:0201330007c7fc
:0201340007c6fc
:0201350007c6fb
:0201360007c5fb
:0201370007c5fa
:0201380007c5f9
:0201390007c4f9
:02013a0007c4f8
:02013b0007c4f7
:02013c0007c3f7
:02013d0007c3f6
:02013e0007c2f6
:02013f0007c2f5
:0201400007c2f4
:0201410007c1f4
:0201420007c1f3
:0201430007c1f2
:0201440007c0f2
:0201450007c0f1
:0201460007bff1
:0201470007bff0
:0201480007bfef
:0201490007beef
:02014a0007beee
:02014b0007bdee
:02014c0007bded
:02014d0007bdec
:02014e0007bcec
:02014f0007bceb
:0201500007bbeb
:0201510007bbea
:0201520007bbe9
:0201530007bae9
:0201540007bae8
:0201550007b9e8
:0201560007b9e7
:0201570007b9e6
:0201580007b8e6
:0201590007b8e5
:02015a0007b7e5
:02015b0007b7e4
:02015c0007b7e3
:02015d0007b6e3
:02015e0007b6e2
:02015f0007b5e2
:0201600007b5e1
:0201610007b4e1
:0201620007b4e0
:0201630007b4df
:0201640007b3df
:0201650007b3de
:0201660007b2de
:0201670007b2dd
:0201680007b1dd
:0201690007b1dc
:02016a0007b1db
:02016b0007b0db
:02016c0007b0da
:02016d0007afda
:02016e0007afd9
:02016f0007aed9
:0201700007aed8
:0201710007aed7
:0201720007add7
:0201730007add6
:0201740007acd6
:0201750007acd5
:0201760007abd5
:0201770007abd4
:0201780007aad4
:0201790007aad3
:02017a0007aad2
:02017b0007a9d2
:02017c0007a9d1
:02017d0007a8d1
:02017e0007a8d0
:02017f0007a7d0
:0201800007a7cf
:0201810007a6cf
:0201820007a6ce
:0201830007a5ce
:0201840007a5cd
:0201850007a5cc
:0201860007a4cc
:0201870007a4cb
:0201880007a3cb
:0201890007a3ca
:02018a0007a2ca
:02018b0007a2c9
:02018c0007a1c9
:02018d0007a1c8
:02018e0007a0c8
:02018f0007a0c7
:02019000079fc7
:02019100079fc6
:02019200079ec6
:02019300079ec5
:02019400079ec4
:02019500079dc4
:02019600079dc3
:02019700079cc3
:02019800079cc2
:02019900079bc2
:02019a00079bc1
:02019b00079ac1
:02019c00079ac0
:02019d000799c0
:02019e000799bf
:02019f000798bf
:0201a0000798be
:0201a1000797be
:0201a2000797bd
:0201a3000796bd
:0201a4000796bc
:0201a5000795bc
:0201a6000795bb
:0201a7000794bb
:0201a8000794ba
:0201a9000793ba
:0201aa000793b9
:0201ab000792b9
:0201ac000792b8
:0201ad000791b8
:0201ae000791b7
:0201af000790b7
:0201b0000790b6
:0201b100078fb6
:0201b200078fb5
:0201b300078eb5
:0201b400078eb4
:0201b500078db4
:0201b600078db3
:0201b700078cb3
:0201b800078cb2
:0201b900078bb2
:0201ba00078ab2
:0201bb00078ab1
:0201bc000789b1
:0201bd000789b0
:0201be000788b0
:0201bf000788af
:0201c0000787af
:0201c1000787ae
:0201c2000786ae
:0201c3000786ad
:0201c4000785ad
:0201c5000785ac
:0201c6000784ac
:0201c7000784ab
:0201c8000783ab
:0201c9000783aa
:0201ca000782aa
:0201cb000781aa
:0201cc000781a9
:0201cd000780a9
:0201ce000780a8
:0201cf00077fa8
:0201d000077fa7
:0201d100077ea7
:0201d200077ea6
:0201d300077da6
:0201d400077da5
:0201d500077ca5
:0201d600077ba5
:0201d700077ba4
:0201d800077aa4
:0201d900077aa3
:0201da000779a3
:0201db000779a2
:0201dc000778a2
:0201dd000778a1
:0201de000777a1
:0201df000776a1
:0201e0000776a0
:0201e1000775a0
:0201e20007759f
:0201e30007749f
:0201e40007749e
:0201e50007739e
:0201e60007729e
:0201e70007729d
:0201e80007719d
:0201e90007719c
:0201ea0007709c
:0201eb0007709b
:0201ec00076f9b
:0201ed00076e9b
:0201ee00076e9a
:0201ef00076d9a
:0201f000076d99
:0201f100076c99
:0201f200076b99
:0201f300076b98
:0201f400076a98
:0201f500076a97
:0201f600076997
:0201f700076996
:0201f800076896
:0201f900076796
:0201fa00076795
:0201fb00076695
:0201fc00076694
:0201fd00076594
:0201fe00076494
:0201ff00076493
:02020000076392
:02020100076391
:02020200076291
:02020300076191
:02020400076190
:02020500076090
:0202060007608f
:02020700075f8f
:02020800075e8f
:02020900075e8e
:02020a00075d8e
:02020b00075d8d
:02020c00075c8d
:02020d00075b8d
:02020e00075b8c
:02020f00075a8c
:0202100007598c
:0202110007598b
:0202120007588b
:0202130007588a
:0202140007578a
:0202150007568a
:02021600075689
:02021700075589
:02021800075489
:02021900075488
:02021a00075388
:02021b00075387
:02021c00075287
:02021d00075187
:02021e00075186
:02021f00075086
:02022000074f86
:02022100074f85
:02022200074e85
:02022300074d85
:02022400074d84
:02022500074c84
:02022600074c83
:02022700074b83
:02022800074a83
:02022900074a82
:02022a00074982
:02022b00074882
:02022c00074881
:02022d00074781
:02022e00074681
:02022f00074680
:02023000074580
:02023100074480
:0202320007447f
:0202330007437f
:0202340007427f
:0202350007427e
:0202360007417e
:0202370007407e
:0202380007407d
:02023900073f7d
:02023a00073e7d
:02023b00073e7c
:02023c00073d7c
:02023d00073c7c
:02023e00073c7b
:02023f00073b7b
:02024000073a7b
:02024100073a7a
:0202420007397a
:0202430007387a
:02024400073879
:02024500073779
:02024600073679
:02024700073678
:02024800073578
:02024900073478
:02024a00073477
:02024b00073377
:02024c00073277
:02024d00073276
:02024e00073176
:02024f00073076
:02025000073075
:02025100072f75
:02025200072e75
:02025300072e74
:02025400072d74
:02025500072c74
:02025600072b74
:02025700072b73
:02025800072a73
:02025900072973
:02025a00072972
:02025b00072872
:02025c00072772
:02025d00072771
:02025e00072671
:02025f00072571
:02026000072471
:02026100072470
:02026200072370
:02026300072270
:0202640007226f
:0202650007216f
:0202660007206f
:02026700071f6f
:02026800071f6e
:02026900071e6e
:02026a00071d6e
:02026b00071d6d
:02026c00071c6d
:02026d00071b6d
:02026e00071a6d
:02026f00071a6c
:0202700007196c
:0202710007186c
:0202720007186b
:0202730007176b
:0202740007166b
:0202750007156b
:0202760007156a
:0202770007146a
:0202780007136a
:0202790007126a
:02027a00071269
:02027b00071169
:02027c00071069
:02027d00071068
:02027e00070f68
:02027f00070e68
:02028000070d68
:02028100070d67
:02028200070c67
:02028300070b67
:02028400070a67
:02028500070a66
:02028600070966
:02028700070866
:02028800070766
:02028900070765
:02028a00070665
:02028b00070565
:02028c00070465
:02028d00070464
:02028e00070364
:02028f00070264
:02029000070164
:02029100070163
:02029200070063
:0202930006ff64
:0202940006fe64
:0202950006fe63
:0202960006fd63
:0202970006fc63
:0202980006fb63
:0202990006fa63
:02029a0006fa62
:02029b0006f962
:02029c0006f862
:02029d0006f762
:02029e0006f761
:02029f0006f661
:0202a00006f561
:0202a10006f461
:0202a20006f460
:0202a30006f360
:0202a40006f260
:0202a50006f160
:0202a60006f060
:0202a70006f05f
:0202a80006ef5f
:0202a90006ee5f
:0202aa0006ed5f
:0202ab0006ec5f
:0202ac0006ec5e
:0202ad0006eb5e
:0202ae0006ea5e
:0202af0006e95e
:0202b00006e95d
:0202b10006e85d
:0202b20006e75d
:0202b30006e65d
:0202b40006e55d
:0202b50006e55c
:0202b60006e45c
:0202b70006e35c
:0202b80006e25c
:0202b90006e15c
:0202ba0006e15b
:0202bb0006e05b
:0202bc0006df5b
:0202bd0006de5b
:0202be0006dd5b
:0202bf0006dd5a
:0202c00006dc5a
:0202c10006db5a
:0202c20006da5a
:0202c30006d95a
:0202c40006d959
:0202c50006d859
:0202c60006d759
:0202c70006d659
:0202c80006d559
:0202c90006d459
:0202ca0006d458
:0202cb0006d358
:0202cc0006d258
:0202cd0006d158
:0202ce0006d058
:0202cf0006d057
:0202d00006cf57
:0202d10006ce57
:0202d20006cd57
:0202d30006cc57
:0202d40006cb57
:0202d50006cb56
:0202d60006ca56
:0202d70006c956
:0202d80006c856
:0202d90006c756
:0202da0006c656
:0202db0006c655
:0202dc0006c555
:0202dd0006c455
:0202de0006c355
:0202df0006c255
:0202e00006c155
:0202e10006c154
:0202e20006c054
:0202e30006bf54
:0202e40006be54
:0202e50006bd54
:0202e60006bc54
:0202e70006bc53
:0202e80006bb53
:0202e90006ba53
:0202ea0006b953
:0202eb0006b853
:0202ec0006b753
:0202ed0006b653
:0202ee0006b652
:0202ef0006b552
:0202f00006b452
:0202f10006b352
:0202f20006b252
:0202f30006b152
:0202f40006b052
:0202f50006b051
:0202f60006af51
:0202f70006ae51
:0202f80006ad51
:0202f90006ac51
:0202fa0006ab51
:0202fb0006aa51
:0202fc0006a951
:0202fd0006a950
:0202fe0006a850
:0202ff0006a750
:0203000006a64f
:0203010006a54f
:0203020006a44f
:0203030006a34f
:0203040006a34e
:0203050006a24e
:0203060006a14e
:0203070006a04e
:02030800069f4e
:02030900069e4e
:02030a00069d4e
:02030b00069c4e
:02030c00069b4e
:02030d00069b4d
:02030e00069a4d
:02030f0006994d
:0203100006984d
:0203110006974d
:0203120006964d
:0203130006954d
:0203140006944d
:0203150006934d
:0203160006934c
:0203170006924c
:0203180006914c
:0203190006904c
:02031a00068f4c
:02031b00068e4c
:02031c00068d4c
:02031d00068c4c
:02031e00068b4c
:02031f00068a4c
:02032000068a4b
:0203210006894b
:0203220006884b
:0203230006874b
:0203240006864b
:0203250006854b
:0203260006844b
:0203270006834b
:0203280006824b
:0203290006814b
:02032a0006814a
:02032b0006804a
:02032c00067f4a
:02032d00067e4a
:02032e00067d4a
:02032f00067c4a
:02033000067b4a
:02033100067a4a
:0203320006794a
:0203330006784a
:0203340006774a
:0203350006764a
:0203360006754a
:02033700067549
:02033800067449
:02033900067349
:02033a00067249
:02033b00067149
:02033c00067049
:02033d00066f49
:02033e00066e49
:02033f00066d49
:02034000066c49
:02034100066b49
:02034200066a49
:02034300066949
:02034400066849
:02034500066749
:02034600066748
:02034700066648
:02034800066548
:02034900066448
:02034a00066348
:02034b00066248
:02034c00066148
:02034d00066048
:02034e00065f48
:02034f00065e48
:02035000065d48
:02035100065c48
:02035200065b48
:02035300065a48
:02035400065948
:02035500065848
:02035600065748
:02035700065648
:02035800065548
:02035900065448
:02035a00065447
:02035b00065347
:02035c00065247
:02035d00065147
:02035e00065047
:02035f00064f47
:02036000064e47
:02036100064d47
:02036200064c47
:02036300064b47
:02036400064a47
:02036500064947
:02036600064847
:02036700064747
:02036800064647
:02036900064547
:02036a00064447
:02036b00064347
:02036c00064247
:02036d00064147
:02036e00064047
:02036f00063f47
:02037000063e47
:02037100063d47
:02037200063c47
:02037300063b47
:02037400063a47
:02037500063947
:02037600063847
:02037700063747
:02037800063647
:02037900063547
:02037a00063447
:02037b00063347
:02037c00063247
:02037d00063147
:02037e00063047
:02037f00062f47
:02038000062e47
:02038100062d47
:02038200062c47
:02038300062b47
:02038400062a47
:02038500062947
:02038600062847
:02038700062747
:02038800062647
:02038900062547
:02038a00062447
:02038b00062347
:02038c00062247
:02038d00062147
:02038e00062047
:02038f00061f47
:02039000061e47
:02039100061d47
:02039200061c47
:02039300061b47
:02039400061a47
:02039500061947
:02039600061847
:02039700061747
:02039800061647
:02039900061547
:02039a00061447
:02039b00061347
:02039c00061247
:02039d00061147
:02039e00061047
:02039f00060f47
:0203a000060e47
:0203a100060d47
:0203a200060c47
:0203a300060b47
:0203a400060a47
:0203a500060947
:0203a600060847
:0203a700060747
:0203a800060647
:0203a900060547
:0203aa00060447
:0203ab00060347
:0203ac00060247
:0203ad00060147
:0203ae00060047
:0203af0005ff48
:0203b00005fd49
:0203b10005fc49
:0203b20005fb49
:0203b30005fa49
:0203b40005f949
:0203b50005f849
:0203b60005f749
:0203b70005f649
:0203b80005f549
:0203b90005f449
:0203ba0005f349
:0203bb0005f249
:0203bc0005f149
:0203bd0005f049
:0203be0005ef49
:0203bf0005ee49
:0203c00005ed49
:0203c10005ec49
:0203c20005eb49
:0203c30005ea49
:0203c40005e949
:0203c50005e74a
:0203c60005e64a
:0203c70005e54a
:0203c80005e44a
:0203c90005e34a
:0203ca0005e24a
:0203cb0005e14a
:0203cc0005e04a
:0203cd0005df4a
:0203ce0005de4a
:0203cf0005dd4a
:0203d00005dc4a
:0203d10005db4a
:0203d20005da4a
:0203d30005d94a
:0203d40005d74b
:0203d50005d64b
:0203d60005d54b
:0203d70005d44b
:0203d80005d34b
:0203d90005d24b
:0203da0005d14b
:0203db0005d04b
:0203dc0005cf4b
:0203dd0005ce4b
:0203de0005cd4b
:0203df0005cc4b
:0203e00005cb4b
:0203e10005c94c
:0203e20005c84c
:0203e30005c74c
:0203e40005c64c
:0203e50005c54c
:0203e60005c44c
:0203e70005c34c
:0203e80005c24c
:0203e90005c14c
:0203ea0005c04c
:0203eb0005bf4c
:0203ec0005bd4d
:0203ed0005bc4d
:0203ee0005bb4d
:0203ef0005ba4d
:0203f00005b94d
:0203f10005b84d
:0203f20005b74d
:0203f30005b64d
:0203f40005b54d
:0203f50005b44d
:0203f60005b34d
:0203f70005b14e
:0203f80005b04e
:0203f90005af4e
:0203fa0005ae4e
:0203fb0005ad4e
:0203fc0005ac4e
:0203fd0005ab4e
:0203fe0005aa4e
:0203ff0005a94e
:0204000005a74e
:0204010005a64e
:0204020005a54e
:0204030005a44e
:0204040005a34e
:0204050005a24e
:0204060005a14e
:0204070005a04e
:02040800059f4e
:02040900059d4f
:02040a00059c4f
:02040b00059b4f
:02040c00059a4f
:02040d0005994f
:02040e0005984f
:02040f0005974f
:0204100005964f
:02041100059450
:02041200059350
:02041300059250
:02041400059150
:02041500059050
:02041600058f50
:02041700058e50
:02041800058d50
:02041900058b51
:02041a00058a51
:02041b00058951
:02041c00058851
:02041d00058751
:02041e00058651
:02041f00058551
:02042000058352
:02042100058252
:02042200058152
:02042300058052
:02042400057f52
:02042500057e52
:02042600057d52
:02042700057c52
:02042800057a53
:02042900057953
:02042a00057853
:02042b00057753
:02042c00057653
:02042d00057553
:02042e00057354
:02042f00057254
:02043000057154
:02043100057054
:02043200056f54
:02043300056e54
:02043400056d54
:02043500056b55
:02043600056a55
:02043700056955
:02043800056855
:02043900056755
:02043a00056655
:02043b00056456
:02043c00056356
:02043d00056256
:02043e00056156
:02043f00056056
:02044000055f56
:02044100055e56
:02044200055c57
:02044300055b57
:02044400055a57
:02044500055957
:02044600055857
:02044700055757
:02044800055558
:02044900055458
:02044a00055358
:02044b00055258
:02044c00055158
:02044d00054f59
:02044e00054e59
:02044f00054d59
:02045000054c59
:02045100054b59
:02045200054a59
:0204530005485a
:0204540005475a
:0204550005465a
:0204560005455a
:0204570005445a
:0204580005435a
:0204590005415b
:02045a0005405b
:02045b00053f5b
:02045c00053e5b
:02045d00053d5b
:02045e00053b5c
:02045f00053a5c
:0204600005395c
:0204610005385c
:0204620005375c
:0204630005355d
:0204640005345d
:0204650005335d
:0204660005325d
:0204670005315d
:0204680005305d
:02046900052e5e
:02046a00052d5e
:02046b00052c5e
:02046c00052b5e
:02046d00052a5e
:02046e0005285f
:02046f0005275f
:0204700005265f
:0204710005255f
:0204720005245f
:02047300052260
:02047400052160
:02047500052060
:02047600051f60
:02047700051d61
:02047800051c61
:02047900051b61
:02047a00051a61
:02047b00051961
:02047c00051762
:02047d00051662
:02047e00051562
:02047f00051462
:02048000051362
:02048100051163
:02048200051063
:02048300050f63
:02048400050e63
:02048500050d63
:02048600050b64
:02048700050a64
:02048800050964
:02048900050864
:02048a00050665
:02048b00050565
:02048c00050465
:02048d00050365
:02048e00050265
:02048f00050066
:0204900004ff67
:0204910004fe67
:0204920004fd67
:0204930004fb68
:0204940004fa68
:0204950004f968
:0204960004f868
:0204970004f669
:0204980004f569
:0204990004f469
:02049a0004f369
:02049b0004f269
:02049c0004f06a
:02049d0004ef6a
:02049e0004ee6a
:02049f0004ed6a
:0204a00004eb6b
:0204a10004ea6b
:0204a20004e96b
:0204a30004e86b
:0204a40004e66c
:0204a50004e56c
:0204a60004e46c
:0204a70004e36c
:0204a80004e16d
:0204a90004e06d
:0204aa0004df6d
:0204ab0004de6d
:0204ac0004dc6e
:0204ad0004db6e
:0204ae0004da6e
:0204af0004d96e
:0204b00004d76f
:0204b10004d66f
:0204b20004d56f
:0204b30004d46f
:0204b40004d270
:0204b50004d170
:0204b60004d070
:0204b70004cf70
:0204b80004cd71
:0204b90004cc71
:0204ba0004cb71
:0204bb0004ca71
:0204bc0004c872
:0204bd0004c772
:0204be0004c672
:0204bf0004c572
:0204c00004c373
:0204c10004c273
:0204c20004c173
:0204c30004c073
:0204c40004be74
:0204c50004bd74
:0204c60004bc74
:0204c70004bb74
:0204c80004b975
:0204c90004b875
:0204ca0004b775
:0204cb0004b576
:0204cc0004b476
:0204cd0004b376
:0204ce0004b276
:0204cf0004b077
:0204d00004af77
:0204d10004ae77
:0204d20004ad77
:0204d30004ab78
:0204d40004aa78
:0204d50004a978
:0204d60004a779
:0204d70004a679
:0204d80004a579
:0204d90004a479
:0204da0004a27a
:0204db0004a17a
:0204dc0004a07a
:0204dd00049f7a
:0204de00049d7b
:0204df00049c7b
:0204e000049b7b
:0204e10004997c
:0204e20004987c
:0204e30004977c
:0204e40004967c
:0204e50004947d
:0204e60004937d
:0204e70004927d
:0204e80004907e
:0204e900048f7e
:0204ea00048e7e
:0204eb00048d7e
:0204ec00048b7f
:0204ed00048a7f
:0204ee0004897f
:0204ef00048780
:0204f000048680
:0204f100048580
:0204f200048381
:0204f300048281
:0204f400048181
:0204f500048081
:0204f600047e82
:0204f700047d82
:0204f800047c82
:0204f900047a83
:0204fa00047983
:0204fb00047883
:0204fc00047684
:0204fd00047584
:0204fe00047484
:0204ff00047384
:02050000047184
:02050100047084
:02050200046f84
:02050300046d85
:02050400046c85
:02050500046b85
:02050600046986
:02050700046886
:02050800046786
:02050900046587
:02050a00046487
:02050b00046387
:02050c00046287
:02050d00046088
:02050e00045f88
:02050f00045e88
:02051000045c89
:02051100045b89
:02051200045a89
:0205130004588a
:0205140004578a
:0205150004568a
:0205160004548b
:0205170004538b
:0205180004528b
:0205190004508c
:02051a00044f8c
:02051b00044e8c
:02051c00044c8d
:02051d00044b8d
:02051e00044a8d
:02051f0004488e
:0205200004478e
:0205210004468e
:0205220004448f
:0205230004438f
:0205240004428f
:02052500044090
:02052600043f90
:02052700043e90
:02052800043d90
:02052900043b91
:02052a00043a91
:02052b00043991
:02052c00043792
:02052d00043692
:02052e00043592
:02052f00043393
:02053000043293
:02053100043094
:02053200042f94
:02053300042e94
:02053400042c95
:02053500042b95
:02053600042a95
:02053700042896
:02053800042796
:02053900042696
:02053a00042497
:02053b00042397
:02053c00042297
:02053d00042098
:02053e00041f98
:02053f00041e98
:02054000041c99
:02054100041b99
:02054200041a99
:0205430004189a
:0205440004179a
:0205450004169a
:0205460004149b
:0205470004139b
:0205480004129b
:0205490004109c
:02054a00040f9c
:02054b00040e9c
:02054c00040c9d
:02054d00040b9d
:02054e0004099e
:02054f0004089e
:0205500004079e
:0205510004059f
:0205520004049f
:0205530004039f
:020554000401a0
:020555000400a0
:0205560003ffa1
:0205570003fda2
:0205580003fca2
:0205590003fba2
:02055a0003f9a3
:02055b0003f8a3
:02055c0003f6a4
:02055d0003f5a4
:02055e0003f4a4
:02055f0003f2a5
:0205600003f1a5
:0205610003f0a5
:0205620003eea6
:0205630003eda6
:0205640003eba7
:0205650003eaa7
:0205660003e9a7
:0205670003e7a8
:0205680003e6a8
:0205690003e5a8
:02056a0003e3a9
:02056b0003e2a9
:02056c0003e1a9
:02056d0003dfaa
:02056e0003deaa
:02056f0003dcab
:0205700003dbab
:0205710003daab
:0205720003d8ac
:0205730003d7ac
:0205740003d6ac
:0205750003d4ad
:0205760003d3ad
:0205770003d1ae
:0205780003d0ae
:0205790003cfae
:02057a0003cdaf
:02057b0003ccaf
:02057c0003cab0
:02057d0003c9b0
:02057e0003c8b0
:02057f0003c6b1
:0205800003c5b1
:0205810003c4b1
:0205820003c2b2
:0205830003c1b2
:0205840003bfb3
:0205850003beb3
:0205860003bdb3
:0205870003bbb4
:0205880003bab4
:0205890003b8b5
:02058a0003b7b5
:02058b0003b6b5
:02058c0003b4b6
:02058d0003b3b6
:02058e0003b2b6
:02058f0003b0b7
:0205900003afb7
:0205910003adb8
:0205920003acb8
:0205930003abb8
:0205940003a9b9
:0205950003a8b9
:0205960003a6ba
:0205970003a5ba
:0205980003a4ba
:0205990003a2bb
:02059a0003a1bb
:02059b00039fbc
:02059c00039ebc
:02059d00039dbc
:02059e00039bbd
:02059f00039abd
:0205a0000398be
:0205a1000397be
:0205a2000396be
:0205a3000394bf
:0205a4000393bf
:0205a5000391c0
:0205a6000390c0
:0205a700038fc0
:0205a800038dc1
:0205a900038cc1
:0205aa00038ac2
:0205ab000389c2
:0205ac000387c3
:0205ad000386c3
:0205ae000385c3
:0205af000383c4
:0205b0000382c4
:0205b1000380c5
:0205b200037fc5
:0205b300037ec5
:0205b400037cc6
:0205b500037bc6
:0205b6000379c7
:0205b7000378c7
:0205b8000377c7
:0205b9000375c8
:0205ba000374c8
:0205bb000372c9
:0205bc000371c9
:0205bd00036fca
:0205be00036eca
:0205bf00036dca
:0205c000036bcb
:0205c100036acb
:0205c2000368cc
:0205c3000367cc
:0205c4000366cc
:0205c5000364cd
:0205c6000363cd
:0205c7000361ce
:0205c8000360ce
:0205c900035ecf
:0205ca00035dcf
:0205cb00035ccf
:0205cc00035ad0
:0205cd000359d0
:0205ce000357d1
:0205cf000356d1
:0205d0000354d2
:0205d1000353d2
:0205d2000352d2
:0205d3000350d3
:0205d400034fd3
:0205d500034dd4
:0205d600034cd4
:0205d700034ad5
:0205d8000349d5
:0205d9000348d5
:0205da000346d6
:0205db000345d6
:0205dc000343d7
:0205dd000342d7
:0205de000340d8
:0205df00033fd8
:0205e000033ed8
:0205e100033cd9
:0205e200033bd9
:0205e3000339da
:0205e4000338da
:0205e5000336db
:0205e6000335db
:0205e7000333dc
:0205e8000332dc
:0205e9000331dc
:0205ea00032fdd
:0205eb00032edd
:0205ec00032cde
:0205ed00032bde
:0205ee000329df
:0205ef000328df
:0205f0000327df
:0205f1000325e0
:0205f2000324e0
:0205f3000322e1
:0205f4000321e1
:0205f500031fe2
:0205f600031ee2
:0205f700031ce3
:0205f800031be3
:0205f9000319e4
:0205fa000318e4
:0205fb000317e4
:0205fc000315e5
:0205fd000314e5
:0205fe000312e6
:0205ff000311e6
:02060000030fe6
:02060100030ee6
:02060200030ce7
:02060300030be7
:02060400030ae7
:020605000308e8
:020606000307e8
:020607000305e9
:020608000304e9
:020609000302ea
:02060a000301ea
:02060b0002ffec
:02060c0002feec
:02060d0002fced
:02060e0002fbed
:02060f0002faed
:0206100002f8ee
:0206110002f7ee
:0206120002f5ef
:0206130002f4ef
:0206140002f2f0
:0206150002f1f0
:0206160002eff1
:0206170002eef1
:0206180002ecf2
:0206190002ebf2
:02061a0002e9f3
:02061b0002e8f3
:02061c0002e7f3
:02061d0002e5f4
:02061e0002e4f4
:02061f0002e2f5
:0206200002e1f5
:0206210002dff6
:0206220002def6
:0206230002dcf7
:0206240002dbf7
:0206250002d9f8
:0206260002d8f8
:0206270002d6f9
:0206280002d5f9
:0206290002d4f9
:02062a0002d2fa
:02062b0002d1fa
:02062c0002cffb
:02062d0002cefb
:02062e0002ccfc
:02062f0002cbfc
:0206300002c9fd
:0206310002c8fd
:0206320002c6fe
:0206330002c5fe
:0206340002c3ff
:0206350002c2ff
:0206360002c000
:0206370002bf00
:0206380002bd01
:0206390002bc01
:02063a0002ba02
:02063b0002b902
:02063c0002b802
:02063d0002b603
:02063e0002b503
:02063f0002b304
:0206400002b204
:0206410002b005
:0206420002af05
:0206430002ad06
:0206440002ac06
:0206450002aa07
:0206460002a907
:0206470002a708
:0206480002a608
:0206490002a409
:02064a0002a309
:02064b0002a10a
:02064c0002a00a
:02064d00029e0b
:02064e00029d0b
:02064f00029b0c
:02065000029a0c
:0206510002980d
:0206520002970d
:0206530002950e
:0206540002940e
:0206550002920f
:0206560002910f
:0206570002900f
:02065800028e10
:02065900028d10
:02065a00028b11
:02065b00028a11
:02065c00028812
:02065d00028712
:02065e00028513
:02065f00028413
:02066000028214
:02066100028114
:02066200027f15
:02066300027e15
:02066400027c16
:02066500027b16
:02066600027917
:02066700027817
:02066800027618
:02066900027518
:02066a00027319
:02066b00027219
:02066c0002701a
:02066d00026f1a
:02066e00026d1b
:02066f00026c1b
:02067000026a1c
:0206710002691c
:0206720002671d
:0206730002661d
:0206740002641e
:0206750002631e
:0206760002611f
:0206770002601f
:02067800025e20
:02067900025d20
:02067a00025b21
:02067b00025a21
:02067c00025822
:02067d00025722
:02067e00025523
:02067f00025423
:02068000025224
:02068100025124
:02068200024f25
:02068300024e25
:02068400024c26
:02068500024b26
:02068600024927
:02068700024827
:02068800024628
:02068900024528
:02068a00024329
:02068b00024229
:02068c0002402a
:02068d00023f2a
:02068e00023d2b
:02068f00023c2b
:02069000023a2c
:0206910002392c
:0206920002372d
:0206930002362d
:0206940002342e
:0206950002332e
:0206960002312f
:0206970002302f
:02069800022e30
:02069900022d30
:02069a00022b31
:02069b00022a31
:02069c00022832
:02069d00022633
:02069e00022533
:02069f00022334
:0206a000022234
:0206a100022035
:0206a200021f35
:0206a300021d36
:0206a400021c36
:0206a500021a37
:0206a600021937
:0206a700021738
:0206a800021638
:0206a900021439
:0206aa00021339
:0206ab0002113a
:0206ac0002103a
:0206ad00020e3b
:0206ae00020d3b
:0206af00020b3c
:0206b000020a3c
:0206b10002083d
:0206b20002073d
:0206b30002053e
:0206b40002043e
:0206b50002023f
:0206b60002013f
:0206b70001ff41
:0206b80001fe41
:0206b90001fc42
:0206ba0001fb42
:0206bb0001f943
:0206bc0001f744
:0206bd0001f644
:0206be0001f445
:0206bf0001f345
:0206c00001f146
:0206c10001f046
:0206c20001ee47
:0206c30001ed47
:0206c40001eb48
:0206c50001ea48
:0206c60001e849
:0206c70001e749
:0206c80001e54a
:0206c90001e44a
:0206ca0001e24b
:0206cb0001e14b
:0206cc0001df4c
:0206cd0001de4c
:0206ce0001dc4d
:0206cf0001db4d
:0206d00001d94e
:0206d10001d74f
:0206d20001d64f
:0206d30001d450
:0206d40001d350
:0206d50001d151
:0206d60001d051
:0206d70001ce52
:0206d80001cd52
:0206d90001cb53
:0206da0001ca53
:0206db0001c854
:0206dc0001c754
:0206dd0001c555
:0206de0001c455
:0206df0001c256
:0206e00001c156
:0206e10001bf57
:0206e20001bd58
:0206e30001bc58
:0206e40001ba59
:0206e50001b959
:0206e60001b75a
:0206e70001b65a
:0206e80001b45b
:0206e90001b35b
:0206ea0001b15c
:0206eb0001b05c
:0206ec0001ae5d
:0206ed0001ad5d
:0206ee0001ab5e
:0206ef0001a95f
:0206f00001a85f
:0206f10001a660
:0206f20001a560
:0206f30001a361
:0206f40001a261
:0206f50001a062
:0206f600019f62
:0206f700019d63
:0206f800019c63
:0206f900019a64
:0206fa00019964
:0206fb00019765
:0206fc00019665
:0206fd00019466
:0206fe00019267
:0206ff00019167
:02070000018f67
:02070100018e67
:02070200018c68
:02070300018b68
:02070400018969
:02070500018869
:0207060001866a
:0207070001856a
:0207080001836b
:0207090001816c
:02070a0001806c
:02070b00017e6d
:02070c00017d6d
:02070d00017b6e
:02070e00017a6e
:02070f0001786f
:0207100001776f
:02071100017570
:02071200017470
:02071300017271
:02071400017171
:02071500016f72
:02071600016d73
:02071700016c73
:02071800016a74
:02071900016974
:02071a00016775
:02071b00016675
:02071c00016476
:02071d00016376
:02071e00016177
:02071f00016077
:02072000015e78
:02072100015c79
:02072200015b79
:0207230001597a
:0207240001587a
:0207250001567b
:0207260001557b
:0207270001537c
:0207280001527c
:0207290001507d
:02072a00014e7e
:02072b00014d7e
:02072c00014b7f
:02072d00014a7f
:02072e00014880
:02072f00014780
:02073000014581
:02073100014481
:02073200014282
:02073300014182
:02073400013f83
:02073500013d84
:02073600013c84
:02073700013a85
:02073800013985
:02073900013786
:02073a00013686
:02073b00013487
:02073c00013387
:02073d00013188
:02073e00012f89
:02073f00012e89
:02074000012c8a
:02074100012b8a
:0207420001298b
:0207430001288b
:0207440001268c
:0207450001258c
:0207460001238d
:0207470001218e
:0207480001208e
:02074900011e8f
:02074a00011d8f
:02074b00011b90
:02074c00011a90
:02074d00011891
:02074e00011791
:02074f00011592
:02075000011393
:02075100011293
:02075200011094
:02075300010f94
:02075400010d95
:02075500010c95
:02075600010a96
:02075700010996
:02075800010797
:02075900010598
:02075a00010498
:02075b00010299
:02075c00010199
:02075d0000ff9b
:02075e0000fe9b
:02075f0000fc9c
:0207600000fb9c
:0207610000f99d
:0207620000f79e
:0207630000f69e
:0207640000f49f
:0207650000f39f
:0207660000f1a0
:0207670000f0a0
:0207680000eea1
:0207690000eda1
:02076a0000eba2
:02076b0000e9a3
:02076c0000e8a3
:02076d0000e6a4
:02076e0000e5a4
:02076f0000e3a5
:0207700000e2a5
:0207710000e0a6
:0207720000dfa6
:0207730000dda7
:0207740000dba8
:0207750000daa8
:0207760000d8a9
:0207770000d7a9
:0207780000d5aa
:0207790000d4aa
:02077a0000d2ab
:02077b0000d0ac
:02077c0000cfac
:02077d0000cdad
:02077e0000ccad
:02077f0000caae
:0207800000c9ae
:0207810000c7af
:0207820000c6af
:0207830000c4b0
:0207840000c2b1
:0207850000c1b1
:0207860000bfb2
:0207870000beb2
:0207880000bcb3
:0207890000bbb3
:02078a0000b9b4
:02078b0000b7b5
:02078c0000b6b5
:02078d0000b4b6
:02078e0000b3b6
:02078f0000b1b7
:0207900000b0b7
:0207910000aeb8
:0207920000acb9
:0207930000abb9
:0207940000a9ba
:0207950000a8ba
:0207960000a6bb
:0207970000a5bb
:0207980000a3bc
:0207990000a2bc
:02079a0000a0bd
:02079b00009ebe
:02079c00009dbe
:02079d00009bbf
:02079e00009abf
:02079f000098c0
:0207a0000097c0
:0207a1000095c1
:0207a2000093c2
:0207a3000092c2
:0207a4000090c3
:0207a500008fc3
:0207a600008dc4
:0207a700008cc4
:0207a800008ac5
:0207a9000088c6
:0207aa000087c6
:0207ab000085c7
:0207ac000084c7
:0207ad000082c8
:0207ae000081c8
:0207af00007fc9
:0207b000007ec9
:0207b100007cca
:0207b200007acb
:0207b3000079cb
:0207b4000077cc
:0207b5000076cc
:0207b6000074cd
:0207b7000073cd
:0207b8000071ce
:0207b900006fcf
:0207ba00006ecf
:0207bb00006cd0
:0207bc00006bd0
:0207bd000069d1
:0207be000068d1
:0207bf000066d2
:0207c0000064d3
:0207c1000063d3
:0207c2000061d4
:0207c3000060d4
:0207c400005ed5
:0207c500005dd5
:0207c600005bd6
:0207c7000059d7
:0207c8000058d7
:0207c9000056d8
:0207ca000055d8
:0207cb000053d9
:0207cc000052d9
:0207cd000050da
:0207ce00004edb
:0207cf00004ddb
:0207d000004bdc
:0207d100004adc
:0207d2000048dd
:0207d3000047dd
:0207d4000045de
:0207d5000043df
:0207d6000042df
:0207d7000040e0
:0207d800003fe0
:0207d900003de1
:0207da00003ce1
:0207db00003ae2
:0207dc000039e2
:0207dd000037e3
:0207de000035e4
:0207df000034e4
:0207e0000032e5
:0207e1000031e5
:0207e200002fe6
:0207e300002ee6
:0207e400002ce7
:0207e500002ae8
:0207e6000029e8
:0207e7000027e9
:0207e8000026e9
:0207e9000024ea
:0207ea000023ea
:0207eb000021eb
:0207ec00001fec
:0207ed00001eec
:0207ee00001ced
:0207ef00001bed
:0207f0000019ee
:0207f1000018ee
:0207f2000016ef
:0207f3000014f0
:0207f4000013f0
:0207f5000011f1
:0207f6000010f1
:0207f700000ef2
:0207f800000df2
:0207f900000bf3
:0207fa000009f4
:0207fb000008f4
:0207fc000006f5
:0207fd000005f5
:0207fe000003f6
:0207ff000002f6
:020800000000f6
:020801000ffee8
:020802000ffde8
:020803000ffbe9
:020804000ffae9
:020805000ff8ea
:020806000ff7ea
:020807000ff5eb
:020808000ff3ec
:020809000ff2ec
:02080a000ff0ed
:02080b000fefed
:02080c000fedee
:02080d000fecee
:02080e000feaef
:02080f000fe8f0
:020810000fe7f0
:020811000fe5f1
:020812000fe4f1
:020813000fe2f2
:020814000fe1f2
:020815000fdff3
:020816000fddf4
:020817000fdcf4
:020818000fdaf5
:020819000fd9f5
:02081a000fd7f6
:02081b000fd6f6
:02081c000fd4f7
:02081d000fd2f8
:02081e000fd1f8
:02081f000fcff9
:020820000fcef9
:020821000fccfa
:020822000fcbfa
:020823000fc9fb
:020824000fc7fc
:020825000fc6fc
:020826000fc4fd
:020827000fc3fd
:020828000fc1fe
:020829000fc0fe
:02082a000fbeff
:02082b000fbdff
:02082c000fbb00
:02082d000fb901
:02082e000fb801
:02082f000fb602
:020830000fb502
:020831000fb303
:020832000fb203
:020833000fb004
:020834000fae05
:020835000fad05
:020836000fab06
:020837000faa06
:020838000fa807
:020839000fa707
:02083a000fa508
:02083b000fa309
:02083c000fa209
:02083d000fa00a
:02083e000f9f0a
:02083f000f9d0b
:020840000f9c0b
:020841000f9a0c
:020842000f980d
:020843000f970d
:020844000f950e
:020845000f940e
:020846000f920f
:020847000f910f
:020848000f8f10
:020849000f8d11
:02084a000f8c11
:02084b000f8a12
:02084c000f8912
:02084d000f8713
:02084e000f8613
:02084f000f8414
:020850000f8215
:020851000f8115
:020852000f7f16
:020853000f7e16
:020854000f7c17
:020855000f7b17
:020856000f7918
:020857000f7818
:020858000f7619
:020859000f741a
:02085a000f731a
:02085b000f711b
:02085c000f701b
:02085d000f6e1c
:02085e000f6d1c
:02085f000f6b1d
:020860000f691e
:020861000f681e
:020862000f661f
:020863000f651f
:020864000f6320
:020865000f6220
:020866000f6021
:020867000f5e22
:020868000f5d22
:020869000f5b23
:02086a000f5a23
:02086b000f5824
:02086c000f5724
:02086d000f5525
:02086e000f5425
:02086f000f5226
:020870000f5027
:020871000f4f27
:020872000f4d28
:020873000f4c28
:020874000f4a29
:020875000f4929
:020876000f472a
:020877000f452b
:020878000f442b
:020879000f422c
:02087a000f412c
:02087b000f3f2d
:02087c000f3e2d
:02087d000f3c2e
:02087e000f3a2f
:02087f000f392f
:020880000f3730
:020881000f3630
:020882000f3431
:020883000f3331
:020884000f3132
:020885000f3032
:020886000f2e33
:020887000f2c34
:020888000f2b34
:020889000f2935
:02088a000f2835
:02088b000f2636
:02088c000f2536
:02088d000f2337
:02088e000f2138
:02088f000f2038
:020890000f1e39
:020891000f1d39
:020892000f1b3a
:020893000f1a3a
:020894000f183b
:020895000f173b
:020896000f153c
:020897000f133d
:020898000f123d
:020899000f103e
:02089a000f0f3e
:02089b000f0d3f
:02089c000f0c3f
:02089d000f0a40
:02089e000f0940
:02089f000f0741
:0208a0000f0542
:0208a1000f0442
:0208a2000f0243
:0208a3000f0143
:0208a4000eff45
:0208a5000efe45
:0208a6000efc46
:0208a7000efb46
:0208a8000ef947
:0208a9000ef748
:0208aa000ef648
:0208ab000ef449
:0208ac000ef349
:0208ad000ef14a
:0208ae000ef04a
:0208af000eee4b
:0208b0000eed4b
:0208b1000eeb4c
:0208b2000ee94d
:0208b3000ee84d
:0208b4000ee64e
:0208b5000ee54e
:0208b6000ee34f
:0208b7000ee24f
:0208b8000ee050
:0208b9000edf50
:0208ba000edd51
:0208bb000edb52
:0208bc000eda52
:0208bd000ed853
:0208be000ed753
:0208bf000ed554
:0208c0000ed454
:0208c1000ed255
:0208c2000ed155
:0208c3000ecf56
:0208c4000ecd57
:0208c5000ecc57
:0208c6000eca58
:0208c7000ec958
:0208c8000ec759
:0208c9000ec659
:0208ca000ec45a
:0208cb000ec35a
:0208cc000ec15b
:0208cd000ebf5c
:0208ce000ebe5c
:0208cf000ebc5d
:0208d0000ebb5d
:0208d1000eb95e
:0208d2000eb85e
:0208d3000eb65f
:0208d4000eb55f
:0208d5000eb360
:0208d6000eb260
:0208d7000eb061
:0208d8000eae62
:0208d9000ead62
:0208da000eab63
:0208db000eaa63
:0208dc000ea864
:0208dd000ea764
:0208de000ea565
:0208df000ea465
:0208e0000ea266
:0208e1000ea067
:0208e2000e9f67
:0208e3000e9d68
:0208e4000e9c68
:0208e5000e9a69
:0208e6000e9969
:0208e7000e976a
:0208e8000e966a
:0208e9000e946b
:0208ea000e936b
:0208eb000e916c
:0208ec000e8f6d
:0208ed000e8e6d
:0208ee000e8c6e
:0208ef000e8b6e
:0208f0000e896f
:0208f1000e886f
:0208f2000e8670
:0208f3000e8570
:0208f4000e8371
:0208f5000e8271
:0208f6000e8072
:0208f7000e7f72
:0208f8000e7d73
:0208f9000e7b74
:0208fa000e7a74
:0208fb000e7875
:0208fc000e7775
:0208fd000e7576
:0208fe000e7476
:0208ff000e7277
:020900000e7176
:020901000e6f77
:020902000e6e77
:020903000e6c78
:020904000e6a79
:020905000e6979
:020906000e677a
:020907000e667a
:020908000e647b
:020909000e637b
:02090a000e617c
:02090b000e607c
:02090c000e5e7d
:02090d000e5d7d
:02090e000e5b7e
:02090f000e5a7e
:020910000e587f
:020911000e577f
:020912000e5580
:020913000e5381
:020914000e5281
:020915000e5082
:020916000e4f82
:020917000e4d83
:020918000e4c83
:020919000e4a84
:02091a000e4984
:02091b000e4785
:02091c000e4685
:02091d000e4486
:02091e000e4386
:02091f000e4187
:020920000e3f88
:020921000e3e88
:020922000e3c89
:020923000e3b89
:020924000e398a
:020925000e388a
:020926000e368b
:020927000e358b
:020928000e338c
:020929000e328c
:02092a000e308d
:02092b000e2f8d
:02092c000e2d8e
:02092d000e2c8e
:02092e000e2a8f
:02092f000e298f
:020930000e2790
:020931000e2591
:020932000e2491
:020933000e2292
:020934000e2192
:020935000e1f93
:020936000e1e93
:020937000e1c94
:020938000e1b94
:020939000e1995
:02093a000e1895
:02093b000e1696
:02093c000e1596
:02093d000e1397
:02093e000e1297
:02093f000e1098
:020940000e0f98
:020941000e0d99
:020942000e0c99
:020943000e0a9a
:020944000e099a
:020945000e079b
:020946000e059c
:020947000e049c
:020948000e029d
:020949000e019d
:02094a000dff9f
:02094b000dfe9f
:02094c000dfca0
:02094d000dfba0
:02094e000df9a1
:02094f000df8a1
:020950000df6a2
:020951000df5a2
:020952000df3a3
:020953000df2a3
:020954000df0a4
:020955000defa4
:020956000deda5
:020957000deca5
:020958000deaa6
:020959000de9a6
:02095a000de7a7
:02095b000de6a7
:02095c000de4a8
:02095d000de3a8
:02095e000de1a9
:02095f000de0a9
:020960000ddeaa
:020961000dddaa
:020962000ddbab
:020963000ddaab
:020964000dd8ac
:020965000dd6ad
:020966000dd5ad
:020967000dd3ae
:020968000dd2ae
:020969000dd0af
:02096a000dcfaf
:02096b000dcdb0
:02096c000dccb0
:02096d000dcab1
:02096e000dc9b1
:02096f000dc7b2
:020970000dc6b2
:020971000dc4b3
:020972000dc3b3
:020973000dc1b4
:020974000dc0b4
:020975000dbeb5
:020976000dbdb5
:020977000dbbb6
:020978000dbab6
:020979000db8b7
:02097a000db7b7
:02097b000db5b8
:02097c000db4b8
:02097d000db2b9
:02097e000db1b9
:02097f000dafba
:020980000daeba
:020981000dacbb
:020982000dabbb
:020983000da9bc
:020984000da8bc
:020985000da6bd
:020986000da5bd
:020987000da3be
:020988000da2be
:020989000da0bf
:02098a000d9fbf
:02098b000d9dc0
:02098c000d9cc0
:02098d000d9ac1
:02098e000d99c1
:02098f000d97c2
:020990000d96c2
:020991000d94c3
:020992000d93c3
:020993000d91c4
:020994000d90c4
:020995000d8ec5
:020996000d8dc5
:020997000d8bc6
:020998000d8ac6
:020999000d88c7
:02099a000d87c7
:02099b000d85c8
:02099c000d84c8
:02099d000d82c9
:02099e000d81c9
:02099f000d7fca
:0209a0000d7eca
:0209a1000d7ccb
:0209a2000d7bcb
:0209a3000d79cc
:0209a4000d78cc
:0209a5000d76cd
:0209a6000d75cd
:0209a7000d73ce
:0209a8000d72ce
:0209a9000d70cf
:0209aa000d6fcf
:0209ab000d6ecf
:0209ac000d6cd0
:0209ad000d6bd0
:0209ae000d69d1
:0209af000d68d1
:0209b0000d66d2
:0209b1000d65d2
:0209b2000d63d3
:0209b3000d62d3
:0209b4000d60d4
:0209b5000d5fd4
:0209b6000d5dd5
:0209b7000d5cd5
:0209b8000d5ad6
:0209b9000d59d6
:0209ba000d57d7
:0209bb000d56d7
:0209bc000d54d8
:0209bd000d53d8
:0209be000d51d9
:0209bf000d50d9
:0209c0000d4eda
:0209c1000d4dda
:0209c2000d4bdb
:0209c3000d4adb
:0209c4000d48dc
:0209c5000d47dc
:0209c6000d46dc
:0209c7000d44dd
:0209c8000d43dd
:0209c9000d41de
:0209ca000d40de
:0209cb000d3edf
:0209cc000d3ddf
:0209cd000d3be0
:0209ce000d3ae0
:0209cf000d38e1
:0209d0000d37e1
:0209d1000d35e2
:0209d2000d34e2
:0209d3000d32e3
:0209d4000d31e3
:0209d5000d2fe4
:0209d6000d2ee4
:0209d7000d2ce5
:0209d8000d2be5
:0209d9000d2ae5
:0209da000d28e6
:0209db000d27e6
:0209dc000d25e7
:0209dd000d24e7
:0209de000d22e8
:0209df000d21e8
:0209e0000d1fe9
:0209e1000d1ee9
:0209e2000d1cea
:0209e3000d1bea
:0209e4000d19eb
:0209e5000d18eb
:0209e6000d17eb
:0209e7000d15ec
:0209e8000d14ec
:0209e9000d12ed
:0209ea000d11ed
:0209eb000d0fee
:0209ec000d0eee
:0209ed000d0cef
:0209ee000d0bef
:0209ef000d09f0
:0209f0000d08f0
:0209f1000d06f1
:0209f2000d05f1
:0209f3000d04f1
:0209f4000d02f2
:0209f5000d01f2
:0209f6000cfff4
:0209f7000cfef4
:0209f8000cfcf5
:0209f9000cfbf5
:0209fa000cf9f6
:0209fb000cf8f6
:0209fc000cf6f7
:0209fd000cf5f7
:0209fe000cf4f7
:0209ff000cf2f8
:020a00000cf1f7
:020a01000ceff8
:020a02000ceef8
:020a03000cecf9
:020a04000cebf9
:020a05000ce9fa
:020a06000ce8fa
:020a07000ce7fa
:020a08000ce5fb
:020a09000ce4fb
:020a0a000ce2fc
:020a0b000ce1fc
:020a0c000cdffd
:020a0d000cdefd
:020a0e000cdcfe
:020a0f000cdbfe
:020a10000cd9ff
:020a11000cd8ff
:020a12000cd7ff
:020a13000cd500
:020a14000cd400
:020a15000cd201
:020a16000cd101
:020a17000ccf02
:020a18000cce02
:020a19000ccd02
:020a1a000ccb03
:020a1b000cca03
:020a1c000cc804
:020a1d000cc704
:020a1e000cc505
:020a1f000cc405
:020a20000cc206
:020a21000cc106
:020a22000cc006
:020a23000cbe07
:020a24000cbd07
:020a25000cbb08
:020a26000cba08
:020a27000cb809
:020a28000cb709
:020a29000cb609
:020a2a000cb40a
:020a2b000cb30a
:020a2c000cb10b
:020a2d000cb00b
:020a2e000cae0c
:020a2f000cad0c
:020a30000cac0c
:020a31000caa0d
:020a32000ca90d
:020a33000ca70e
:020a34000ca60e
:020a35000ca40f
:020a36000ca30f
:020a37000ca20f
:020a38000ca010
:020a39000c9f10
:020a3a000c9d11
:020a3b000c9c11
:020a3c000c9a12
:020a3d000c9912
:020a3e000c9812
:020a3f000c9613
:020a40000c9513
:020a41000c9314
:020a42000c9214
:020a43000c9114
:020a44000c8f15
:020a45000c8e15
:020a46000c8c16
:020a47000c8b16
:020a48000c8917
:020a49000c8817
:020a4a000c8717
:020a4b000c8518
:020a4c000c8418
:020a4d000c8219
:020a4e000c8119
:020a4f000c8019
:020a50000c7e1a
:020a51000c7d1a
:020a52000c7b1b
:020a53000c7a1b
:020a54000c791b
:020a55000c771c
:020a56000c761c
:020a57000c741d
:020a58000c731d
:020a59000c711e
:020a5a000c701e
:020a5b000c6f1e
:020a5c000c6d1f
:020a5d000c6c1f
:020a5e000c6a20
:020a5f000c6920
:020a60000c6820
:020a61000c6621
:020a62000c6521
:020a63000c6322
:020a64000c6222
:020a65000c6122
:020a66000c5f23
:020a67000c5e23
:020a68000c5c24
:020a69000c5b24
:020a6a000c5a24
:020a6b000c5825
:020a6c000c5725
:020a6d000c5526
:020a6e000c5426
:020a6f000c5326
:020a70000c5127
:020a71000c5027
:020a72000c4e28
:020a73000c4d28
:020a74000c4c28
:020a75000c4a29
:020a76000c4929
:020a77000c4829
:020a78000c462a
:020a79000c452a
:020a7a000c432b
:020a7b000c422b
:020a7c000c412b
:020a7d000c3f2c
:020a7e000c3e2c
:020a7f000c3c2d
:020a80000c3b2d
:020a81000c3a2d
:020a82000c382e
:020a83000c372e
:020a84000c362e
:020a85000c342f
:020a86000c332f
:020a87000c3130
:020a88000c3030
:020a89000c2f30
:020a8a000c2d31
:020a8b000c2c31
:020a8c000c2a32
:020a8d000c2932
:020a8e000c2832
:020a8f000c2633
:020a90000c2533
:020a91000c2433
:020a92000c2234
:020a93000c2134
:020a94000c1f35
:020a95000c1e35
:020a96000c1d35
:020a97000c1b36
:020a98000c1a36
:020a99000c1936
:020a9a000c1737
:020a9b000c1637
:020a9c000c1537
:020a9d000c1338
:020a9e000c1238
:020a9f000c1039
:020aa0000c0f39
:020aa1000c0e39
:020aa2000c0c3a
:020aa3000c0b3a
:020aa4000c0a3a
:020aa5000c083b
:020aa6000c073b
:020aa7000c053c
:020aa8000c043c
:020aa9000c033c
:020aaa000c013d
:020aab000c003d
:020aac000bff3e
:020aad000bfd3f
:020aae000bfc3f
:020aaf000bfb3f
:020ab0000bf940
:020ab1000bf840
:020ab2000bf740
:020ab3000bf541
:020ab4000bf441
:020ab5000bf242
:020ab6000bf142
:020ab7000bf042
:020ab8000bee43
:020ab9000bed43
:020aba000bec43
:020abb000bea44
:020abc000be944
:020abd000be844
:020abe000be645
:020abf000be545
:020ac0000be445
:020ac1000be246
:020ac2000be146
:020ac3000be046
:020ac4000bde47
:020ac5000bdd47
:020ac6000bdc47
:020ac7000bda48
:020ac8000bd948
:020ac9000bd848
:020aca000bd649
:020acb000bd549
:020acc000bd449
:020acd000bd24a
:020ace000bd14a
:020acf000bd04a
:020ad0000bce4b
:020ad1000bcd4b
:020ad2000bcb4c
:020ad3000bca4c
:020ad4000bc94c
:020ad5000bc74d
:020ad6000bc64d
:020ad7000bc54d
:020ad8000bc34e
:020ad9000bc24e
:020ada000bc14e
:020adb000bc04e
:020adc000bbe4f
:020add000bbd4f
:020ade000bbc4f
:020adf000bba50
:020ae0000bb950
:020ae1000bb850
:020ae2000bb651
:020ae3000bb551
:020ae4000bb451
:020ae5000bb252
:020ae6000bb152
:020ae7000bb052
:020ae8000bae53
:020ae9000bad53
:020aea000bac53
:020aeb000baa54
:020aec000ba954
:020aed000ba854
:020aee000ba655
:020aef000ba555
:020af0000ba455
:020af1000ba256
:020af2000ba156
:020af3000ba056
:020af4000b9e57
:020af5000b9d57
:020af6000b9c57
:020af7000b9b57
:020af8000b9958
:020af9000b9858
:020afa000b9758
:020afb000b9559
:020afc000b9459
:020afd000b9359
:020afe000b915a
:020aff000b905a
:020b00000b8f59
:020b01000b8d5a
:020b02000b8c5a
:020b03000b8b5a
:020b04000b8a5a
:020b05000b885b
:020b06000b875b
:020b07000b865b
:020b08000b845c
:020b09000b835c
:020b0a000b825c
:020b0b000b805d
:020b0c000b7f5d
:020b0d000b7e5d
:020b0e000b7d5d
:020b0f000b7b5e
:020b10000b7a5e
:020b11000b795e
:020b12000b775f
:020b13000b765f
:020b14000b755f
:020b15000b7360
:020b16000b7260
:020b17000b7160
:020b18000b7060
:020b19000b6e61
:020b1a000b6d61
:020b1b000b6c61
:020b1c000b6a62
:020b1d000b6962
:020b1e000b6862
:020b1f000b6762
:020b20000b6563
:020b21000b6463
:020b22000b6363
:020b23000b6164
:020b24000b6064
:020b25000b5f64
:020b26000b5e64
:020b27000b5c65
:020b28000b5b65
:020b29000b5a65
:020b2a000b5965
:020b2b000b5766
:020b2c000b5666
:020b2d000b5566
:020b2e000b5367
:020b2f000b5267
:020b30000b5167
:020b31000b5067
:020b32000b4e68
:020b33000b4d68
:020b34000b4c68
:020b35000b4b68
:020b36000b4969
:020b37000b4869
:020b38000b4769
:020b39000b456a
:020b3a000b446a
:020b3b000b436a
:020b3c000b426a
:020b3d000b406b
:020b3e000b3f6b
:020b3f000b3e6b
:020b40000b3d6b
:020b41000b3b6c
:020b42000b3a6c
:020b43000b396c
:020b44000b386c
:020b45000b366d
:020b46000b356d
:020b47000b346d
:020b48000b336d
:020b49000b316e
:020b4a000b306e
:020b4b000b2f6e
:020b4c000b2e6e
:020b4d000b2c6f
:020b4e000b2b6f
:020b4f000b2a6f
:020b50000b296f
:020b51000b2770
:020b52000b2670
:020b53000b2570
:020b54000b2470
:020b55000b2271
:020b56000b2171
:020b57000b2071
:020b58000b1f71
:020b59000b1d72
:020b5a000b1c72
:020b5b000b1b72
:020b5c000b1a72
:020b5d000b1873
:020b5e000b1773
:020b5f000b1673
:020b60000b1573
:020b61000b1374
:020b62000b1274
:020b63000b1174
:020b64000b1074
:020b65000b0e75
:020b66000b0d75
:020b67000b0c75
:020b68000b0b75
:020b69000b0a75
:020b6a000b0876
:020b6b000b0776
:020b6c000b0676
:020b6d000b0576
:020b6e000b0377
:020b6f000b0277
:020b70000b0177
:020b71000b0077
:020b72000afe79
:020b73000afd79
:020b74000afc79
:020b75000afb79
:020b76000afa79
:020b77000af87a
:020b78000af77a
:020b79000af67a
:020b7a000af57a
:020b7b000af37b
:020b7c000af27b
:020b7d000af17b
:020b7e000af07b
:020b7f000aef7b
:020b80000aed7c
:020b81000aec7c
:020b82000aeb7c
:020b83000aea7c
:020b84000ae97c
:020b85000ae77d
:020b86000ae67d
:020b87000ae57d
:020b88000ae47d
:020b89000ae37d
:020b8a000ae17e
:020b8b000ae07e
:020b8c000adf7e
:020b8d000ade7e
:020b8e000adc7f
:020b8f000adb7f
:020b90000ada7f
:020b91000ad97f
:020b92000ad87f
:020b93000ad680
:020b94000ad580
:020b95000ad480
:020b96000ad380
:020b97000ad280
:020b98000ad081
:020b99000acf81
:020b9a000ace81
:020b9b000acd81
:020b9c000acc81
:020b9d000acb81
:020b9e000ac982
:020b9f000ac882
:020ba0000ac782
:020ba1000ac682
:020ba2000ac582
:020ba3000ac383
:020ba4000ac283
:020ba5000ac183
:020ba6000ac083
:020ba7000abf83
:020ba8000abd84
:020ba9000abc84
:020baa000abb84
:020bab000aba84
:020bac000ab984
:020bad000ab884
:020bae000ab685
:020baf000ab585
:020bb0000ab485
:020bb1000ab385
:020bb2000ab285
:020bb3000ab185
:020bb4000aaf86
:020bb5000aae86
:020bb6000aad86
:020bb7000aac86
:020bb8000aab86
:020bb9000aa987
:020bba000aa887
:020bbb000aa787
:020bbc000aa687
:020bbd000aa587
:020bbe000aa487
:020bbf000aa288
:020bc0000aa188
:020bc1000aa088
:020bc2000a9f88
:020bc3000a9e88
:020bc4000a9d88
:020bc5000a9c88
:020bc6000a9a89
:020bc7000a9989
:020bc8000a9889
:020bc9000a9789
:020bca000a9689
:020bcb000a9589
:020bcc000a938a
:020bcd000a928a
:020bce000a918a
:020bcf000a908a
:020bd0000a8f8a
:020bd1000a8e8a
:020bd2000a8d8a
:020bd3000a8b8b
:020bd4000a8a8b
:020bd5000a898b
:020bd6000a888b
:020bd7000a878b
:020bd8000a868b
:020bd9000a848c
:020bda000a838c
:020bdb000a828c
:020bdc000a818c
:020bdd000a808c
:020bde000a7f8c
:020bdf000a7e8c
:020be0000a7d8c
:020be1000a7b8d
:020be2000a7a8d
:020be3000a798d
:020be4000a788d
:020be5000a778d
:020be6000a768d
:020be7000a758d
:020be8000a738e
:020be9000a728e
:020bea000a718e
:020beb000a708e
:020bec000a6f8e
:020bed000a6e8e
:020bee000a6d8e
:020bef000a6c8e
:020bf0000a6a8f
:020bf1000a698f
:020bf2000a688f
:020bf3000a678f
:020bf4000a668f
:020bf5000a658f
:020bf6000a648f
:020bf7000a638f
:020bf8000a6190
:020bf9000a6090
:020bfa000a5f90
:020bfb000a5e90
:020bfc000a5d90
:020bfd000a5c90
:020bfe000a5b90
:020bff000a5a90
:020c00000a598f
:020c01000a5790
:020c02000a5690
:020c03000a5590
:020c04000a5490
:020c05000a5390
:020c06000a5290
:020c07000a5190
:020c08000a5090
:020c09000a4f90
:020c0a000a4d91
:020c0b000a4c91
:020c0c000a4b91
:020c0d000a4a91
:020c0e000a4991
:020c0f000a4891
:020c10000a4791
:020c11000a4691
:020c12000a4591
:020c13000a4491
:020c14000a4391
:020c15000a4192
:020c16000a4092
:020c17000a3f92
:020c18000a3e92
:020c19000a3d92
:020c1a000a3c92
:020c1b000a3b92
:020c1c000a3a92
:020c1d000a3992
:020c1e000a3892
:020c1f000a3792
:020c20000a3593
:020c21000a3493
:020c22000a3393
:020c23000a3293
:020c24000a3193
:020c25000a3093
:020c26000a2f93
:020c27000a2e93
:020c28000a2d93
:020c29000a2c93
:020c2a000a2b93
:020c2b000a2a93
:020c2c000a2993
:020c2d000a2794
:020c2e000a2694
:020c2f000a2594
:020c30000a2494
:020c31000a2394
:020c32000a2294
:020c33000a2194
:020c34000a2094
:020c35000a1f94
:020c36000a1e94
:020c37000a1d94
:020c38000a1c94
:020c39000a1b94
:020c3a000a1a94
:020c3b000a1994
:020c3c000a1795
:020c3d000a1695
:020c3e000a1595
:020c3f000a1495
:020c40000a1395
:020c41000a1295
:020c42000a1195
:020c43000a1095
:020c44000a0f95
:020c45000a0e95
:020c46000a0d95
:020c47000a0c95
:020c48000a0b95
:020c49000a0a95
:020c4a000a0995
:020c4b000a0895
:020c4c000a0795
:020c4d000a0695
:020c4e000a0595
:020c4f000a0495
:020c50000a0395
:020c51000a0196
:020c52000a0096
:020c530009ff97
:020c540009fe97
:020c550009fd97
:020c560009fc97
:020c570009fb97
:020c580009fa97
:020c590009f997
:020c5a0009f897
:020c5b0009f797
:020c5c0009f697
:020c5d0009f597
:020c5e0009f497
:020c5f0009f397
:020c600009f297
:020c610009f197
:020c620009f097
:020c630009ef97
:020c640009ee97
:020c650009ed97
:020c660009ec97
:020c670009eb97
:020c680009ea97
:020c690009e997
:020c6a0009e897
:020c6b0009e797
:020c6c0009e697
:020c6d0009e597
:020c6e0009e497
:020c6f0009e397
:020c700009e297
:020c710009e197
:020c720009e097
:020c730009df97
:020c740009de97
:020c750009dd97
:020c760009dc97
:020c770009db97
:020c780009da97
:020c790009d997
:020c7a0009d897
:020c7b0009d797
:020c7c0009d697
:020c7d0009d597
:020c7e0009d497
:020c7f0009d397
:020c800009d297
:020c810009d197
:020c820009d097
:020c830009cf97
:020c840009ce97
:020c850009cd97
:020c860009cc97
:020c870009cb97
:020c880009ca97
:020c890009c997
:020c8a0009c897
:020c8b0009c797
:020c8c0009c697
:020c8d0009c597
:020c8e0009c497
:020c8f0009c397
:020c900009c297
:020c910009c197
:020c920009c097
:020c930009bf97
:020c940009be97
:020c950009bd97
:020c960009bc97
:020c970009bb97
:020c980009ba97
:020c990009b997
:020c9a0009b897
:020c9b0009b797
:020c9c0009b697
:020c9d0009b597
:020c9e0009b497
:020c9f0009b397
:020ca00009b297
:020ca10009b197
:020ca20009b097
:020ca30009af97
:020ca40009ae97
:020ca50009ad97
:020ca60009ac97
:020ca70009ac96
:020ca80009ab96
:020ca90009aa96
:020caa0009a996
:020cab0009a896
:020cac0009a796
:020cad0009a696
:020cae0009a596
:020caf0009a496
:020cb00009a396
:020cb10009a296
:020cb20009a196
:020cb30009a096
:020cb400099f96
:020cb500099e96
:020cb600099d96
:020cb700099c96
:020cb800099b96
:020cb900099a96
:020cba00099996
:020cbb00099995
:020cbc00099895
:020cbd00099795
:020cbe00099695
:020cbf00099595
:020cc000099495
:020cc100099395
:020cc200099295
:020cc300099195
:020cc400099095
:020cc500098f95
:020cc600098e95
:020cc700098d95
:020cc800098c95
:020cc900098b95
:020cca00098b94
:020ccb00098a94
:020ccc00098994
:020ccd00098894
:020cce00098794
:020ccf00098694
:020cd000098594
:020cd100098494
:020cd200098394
:020cd300098294
:020cd400098194
:020cd500098094
:020cd600097f94
:020cd700097f93
:020cd800097e93
:020cd900097d93
:020cda00097c93
:020cdb00097b93
:020cdc00097a93
:020cdd00097993
:020cde00097893
:020cdf00097793
:020ce000097693
:020ce100097692
:020ce200097592
:020ce300097492
:020ce400097392
:020ce500097292
:020ce600097192
:020ce700097092
:020ce800096f92
:020ce900096e92
:020cea00096d92
:020ceb00096d91
:020cec00096c91
:020ced00096b91
:020cee00096a91
:020cef00096991
:020cf000096891
:020cf100096791
:020cf200096691
:020cf300096591
:020cf400096590
:020cf500096490
:020cf600096390
:020cf700096290
:020cf800096190
:020cf900096090
:020cfa00095f90
:020cfb00095e90
:020cfc00095d90
:020cfd00095d8f
:020cfe00095c8f
:020cff00095b8f
:020d0000095a8e
:020d010009598e
:020d020009588e
:020d030009578e
:020d040009578d
:020d050009568d
:020d060009558d
:020d070009548d
:020d080009538d
:020d090009528d
:020d0a0009518d
:020d0b0009508d
:020d0c0009508c
:020d0d00094f8c
:020d0e00094e8c
:020d0f00094d8c
:020d1000094c8c
:020d1100094b8c
:020d1200094a8c
:020d1300094a8b
:020d140009498b
:020d150009488b
:020d160009478b
:020d170009468b
:020d180009458b
:020d190009448b
:020d1a0009448a
:020d1b0009438a
:020d1c0009428a
:020d1d0009418a
:020d1e0009408a
:020d1f00093f8a
:020d2000093f89
:020d2100093e89
:020d2200093d89
:020d2300093c89
:020d2400093b89
:020d2500093a89
:020d2600093a88
:020d2700093988
:020d2800093888
:020d2900093788
:020d2a00093688
:020d2b00093588
:020d2c00093587
:020d2d00093487
:020d2e00093387
:020d2f00093287
:020d3000093187
:020d3100093087
:020d3200093086
:020d3300092f86
:020d3400092e86
:020d3500092d86
:020d3600092c86
:020d3700092c85
:020d3800092b85
:020d3900092a85
:020d3a00092985
:020d3b00092885
:020d3c00092785
:020d3d00092784
:020d3e00092684
:020d3f00092584
:020d4000092484
:020d4100092384
:020d4200092383
:020d4300092283
:020d4400092183
:020d4500092083
:020d4600091f83
:020d4700091f82
:020d4800091e82
:020d4900091d82
:020d4a00091c82
:020d4b00091b82
:020d4c00091b81
:020d4d00091a81
:020d4e00091981
:020d4f00091881
:020d5000091781
:020d5100091780
:020d5200091680
:020d5300091580
:020d5400091480
:020d550009147f
:020d560009137f
:020d570009127f
:020d580009117f
:020d590009107f
:020d5a0009107e
:020d5b00090f7e
:020d5c00090e7e
:020d5d00090d7e
:020d5e00090c7e
:020d5f00090c7d
:020d6000090b7d
:020d6100090a7d
:020d620009097d
:020d630009097c
:020d640009087c
:020d650009077c
:020d660009067c
:020d670009067b
:020d680009057b
:020d690009047b
:020d6a0009037b
:020d6b0009027b
:020d6c0009027a
:020d6d0009017a
:020d6e0009007a
:020d6f0008ff7b
:020d700008ff7a
:020d710008fe7a
:020d720008fd7a
:020d730008fc7a
:020d740008fc79
:020d750008fb79
:020d760008fa79
:020d770008f979
:020d780008f978
:020d790008f878
:020d7a0008f778
:020d7b0008f678
:020d7c0008f677
:020d7d0008f577
:020d7e0008f477
:020d7f0008f377
:020d800008f376
:020d810008f276
:020d820008f176
:020d830008f076
:020d840008f075
:020d850008ef75
:020d860008ee75
:020d870008ee74
:020d880008ed74
:020d890008ec74
:020d8a0008eb74
:020d8b0008eb73
:020d8c0008ea73
:020d8d0008e973
:020d8e0008e873
:020d8f0008e872
:020d900008e772
:020d910008e672
:020d920008e671
:020d930008e571
:020d940008e471
:020d950008e371
:020d960008e370
:020d970008e270
:020d980008e170
:020d990008e16f
:020d9a0008e06f
:020d9b0008df6f
:020d9c0008de6f
:020d9d0008de6e
:020d9e0008dd6e
:020d9f0008dc6e
:020da00008dc6d
:020da10008db6d
:020da20008da6d
:020da30008d96d
:020da40008d96c
:020da50008d86c
:020da60008d76c
:020da70008d76b
:020da80008d66b
:020da90008d56b
:020daa0008d56a
:020dab0008d46a
:020dac0008d36a
:020dad0008d26a
:020dae0008d269
:020daf0008d169
:020db00008d069
:020db10008d068
:020db20008cf68
:020db30008ce68
:020db40008ce67
:020db50008cd67
:020db60008cc67
:020db70008cc66
:020db80008cb66
:020db90008ca66
:020dba0008ca65
:020dbb0008c965
:020dbc0008c865
:020dbd0008c864
:020dbe0008c764
:020dbf0008c664
:020dc00008c663
:020dc10008c563
:020dc20008c463
:020dc30008c462
:020dc40008c362
:020dc50008c262
:020dc60008c261
:020dc70008c161
:020dc80008c061
:020dc90008c060
:020dca0008bf60
:020dcb0008be60
:020dcc0008be5f
:020dcd0008bd5f
:020dce0008bc5f
:020dcf0008bc5e
:020dd00008bb5e
:020dd10008ba5e
:020dd20008ba5d
:020dd30008b95d
:020dd40008b85d
:020dd50008b85c
:020dd60008b75c
:020dd70008b65c
:020dd80008b65b
:020dd90008b55b
:020dda0008b45b
:020ddb0008b45a
:020ddc0008b35a
:020ddd0008b359
:020dde0008b259
:020ddf0008b159
:020de00008b158
:020de10008b058
:020de20008af58
:020de30008af57
:020de40008ae57
:020de50008ad57
:020de60008ad56
:020de70008ac56
:020de80008ac55
:020de90008ab55
:020dea0008aa55
:020deb0008aa54
:020dec0008a954
:020ded0008a854
:020dee0008a853
:020def0008a753
:020df00008a752
:020df10008a652
:020df20008a552
:020df30008a551
:020df40008a451
:020df50008a351
:020df60008a350
:020df70008a250
:020df80008a24f
:020df90008a14f
:020dfa0008a04f
:020dfb0008a04e
:020dfc00089f4e
:020dfd00089f4d
:020dfe00089e4d
:020dff00089d4d
:020e0000089d4b
:020e0100089c4b
:020e0200089c4a
:020e0300089b4a
:020e0400089a4a
:020e0500089a49
:020e0600089949
:020e0700089948
:020e0800089848
:020e0900089748
:020e0a00089747
:020e0b00089647
:020e0c00089646
:020e0d00089546
:020e0e00089545
:020e0f00089445
:020e1000089345
:020e1100089344
:020e1200089244
:020e1300089243
:020e1400089143
:020e1500089043
:020e1600089042
:020e1700088f42
:020e1800088f41
:020e1900088e41
:020e1a00088e40
:020e1b00088d40
:020e1c00088c40
:020e1d00088c3f
:020e1e00088b3f
:020e1f00088b3e
:020e2000088a3e
:020e2100088a3d
:020e220008893d
:020e230008883d
:020e240008883c
:020e250008873c
:020e260008873b
:020e270008863b
:020e280008863a
:020e290008853a
:020e2a00088539
:020e2b00088439
:020e2c00088339
:020e2d00088338
:020e2e00088238
:020e2f00088237
:020e3000088137
:020e3100088136
:020e3200088036
:020e3300088035
:020e3400087f35
:020e3500087f34
:020e3600087e34
:020e3700087d34
:020e3800087d33
:020e3900087c33
:020e3a00087c32
:020e3b00087b32
:020e3c00087b31
:020e3d00087a31
:020e3e00087a30
:020e3f00087930
:020e400008792f
:020e410008782f
:020e420008782e
:020e430008772e
:020e440008772d
:020e450008762d
:020e460008762c
:020e470008752c
:020e480008742c
:020e490008742b
:020e4a0008732b
:020e4b0008732a
:020e4c0008722a
:020e4d00087229
:020e4e00087129
:020e4f00087128
:020e5000087028
:020e5100087027
:020e5200086f27
:020e5300086f26
:020e5400086e26
:020e5500086e25
:020e5600086d25
:020e5700086d24
:020e5800086c24
:020e5900086c23
:020e5a00086b23
:020e5b00086b22
:020e5c00086a22
:020e5d00086a21
:020e5e00086921
:020e5f00086920
:020e6000086820
:020e610008681f
:020e620008671f
:020e630008671e
:020e640008661e
:020e650008661d
:020e660008651d
:020e670008651c
:020e680008641c
:020e690008641b
:020e6a0008631b
:020e6b0008631a
:020e6c0008621a
:020e6d00086219
:020e6e00086218
:020e6f00086118
:020e7000086117
:020e7100086017
:020e7200086016
:020e7300085f16
:020e7400085f15
:020e7500085e15
:020e7600085e14
:020e7700085d14
:020e7800085d13
:020e7900085c13
:020e7a00085c12
:020e7b00085b12
:020e7c00085b11
:020e7d00085b10
:020e7e00085a10
:020e7f00085a0f
:020e800008590f
:020e810008590e
:020e820008580e
:020e830008580d
:020e840008570d
:020e850008570c
:020e860008560c
:020e870008560b
:020e880008560a
:020e890008550a
:020e8a00085509
:020e8b00085409
:020e8c00085408
:020e8d00085308
:020e8e00085307
:020e8f00085207
:020e9000085206
:020e9100085205
:020e9200085105
:020e9300085104
:020e9400085004
:020e9500085003
:020e9600084f03
:020e9700084f02
:020e9800084f01
:020e9900084e01
:020e9a00084e00
:020e9b00084d00
:020e9c00084dff
:020e9d00084cff
:020e9e00084cfe
:020e9f00084cfd
:020ea000084bfd
:020ea100084bfc
:020ea200084afc
:020ea300084afb
:020ea4000849fb
:020ea5000849fa
:020ea6000849f9
:020ea7000848f9
:020ea8000848f8
:020ea9000847f8
:020eaa000847f7
:020eab000847f6
:020eac000846f6
:020ead000846f5
:020eae000845f5
:020eaf000845f4
:020eb0000845f3
:020eb1000844f3
:020eb2000844f2
:020eb3000843f2
:020eb4000843f1
:020eb5000843f0
:020eb6000842f0
:020eb7000842ef
:020eb8000841ef
:020eb9000841ee
:020eba000841ed
:020ebb000840ed
:020ebc000840ec
:020ebd00083fec
:020ebe00083feb
:020ebf00083fea
:020ec000083eea
:020ec100083ee9
:020ec200083ee8
:020ec300083de8
:020ec400083de7
:020ec500083ce7
:020ec600083ce6
:020ec700083ce5
:020ec800083be5
:020ec900083be4
:020eca00083be3
:020ecb00083ae3
:020ecc00083ae2
:020ecd000839e2
:020ece000839e1
:020ecf000839e0
:020ed0000838e0
:020ed1000838df
:020ed2000838de
:020ed3000837de
:020ed4000837dd
:020ed5000837dc
:020ed6000836dc
:020ed7000836db
:020ed8000836da
:020ed9000835da
:020eda000835d9
:020edb000834d9
:020edc000834d8
:020edd000834d7
:020ede000833d7
:020edf000833d6
:020ee0000833d5
:020ee1000832d5
:020ee2000832d4
:020ee3000832d3
:020ee4000831d3
:020ee5000831d2
:020ee6000831d1
:020ee7000830d1
:020ee8000830d0
:020ee9000830cf
:020eea00082fcf
:020eeb00082fce
:020eec00082fcd
:020eed00082ecd
:020eee00082ecc
:020eef00082ecb
:020ef000082dcb
:020ef100082dca
:020ef200082dc9
:020ef300082cc9
:020ef400082cc8
:020ef500082cc7
:020ef600082bc7
:020ef700082bc6
:020ef800082bc5
:020ef900082bc4
:020efa00082ac4
:020efb00082ac3
:020efc00082ac2
:020efd000829c2
:020efe000829c1
:020eff000829c0
:020f00000828bf
:020f01000828be
:020f02000828bd
:020f03000827bd
:020f04000827bc
:020f05000827bb
:020f06000827ba
:020f07000826ba
:020f08000826b9
:020f09000826b8
:020f0a000825b8
:020f0b000825b7
:020f0c000825b6
:020f0d000824b6
:020f0e000824b5
:020f0f000824b4
:020f10000824b3
:020f11000823b3
:020f12000823b2
:020f13000823b1
:020f14000822b1
:020f15000822b0
:020f16000822af
:020f17000822ae
:020f18000821ae
:020f19000821ad
:020f1a000821ac
:020f1b000820ac
:020f1c000820ab
:020f1d000820aa
:020f1e000820a9
:020f1f00081fa9
:020f2000081fa8
:020f2100081fa7
:020f2200081fa6
:020f2300081ea6
:020f2400081ea5
:020f2500081ea4
:020f2600081ea3
:020f2700081da3
:020f2800081da2
:020f2900081da1
:020f2a00081da0
:020f2b00081ca0
:020f2c00081c9f
:020f2d00081c9e
:020f2e00081b9e
:020f2f00081b9d
:020f3000081b9c
:020f3100081b9b
:020f3200081a9b
:020f3300081a9a
:020f3400081a99
:020f3500081a98
:020f3600081a97
:020f3700081997
:020f3800081996
:020f3900081995
:020f3a00081994
:020f3b00081894
:020f3c00081893
:020f3d00081892
:020f3e00081891
:020f3f00081791
:020f4000081790
:020f410008178f
:020f420008178e
:020f430008168e
:020f440008168d
:020f450008168c
:020f460008168b
:020f470008168a
:020f480008158a
:020f4900081589
:020f4a00081588
:020f4b00081587
:020f4c00081487
:020f4d00081486
:020f4e00081485
:020f4f00081484
:020f5000081483
:020f5100081383
:020f5200081382
:020f5300081381
:020f5400081380
:020f550008137f
:020f560008127f
:020f570008127e
:020f580008127d
:020f590008127c
:020f5a0008127b
:020f5b0008117b
:020f5c0008117a
:020f5d00081179
:020f5e00081178
:020f5f00081177
:020f6000081077
:020f6100081076
:020f6200081075
:020f6300081074
:020f6400081073
:020f6500080f73
:020f6600080f72
:020f6700080f71
:020f6800080f70
:020f6900080f6f
:020f6a00080f6e
:020f6b00080e6e
:020f6c00080e6d
:020f6d00080e6c
:020f6e00080e6b
:020f6f00080e6a
:020f7000080d6a
:020f7100080d69
:020f7200080d68
:020f7300080d67
:020f7400080d66
:020f7500080d65
:020f7600080c65
:020f7700080c64
:020f7800080c63
:020f7900080c62
:020f7a00080c61
:020f7b00080c60
:020f7c00080b60
:020f7d00080b5f
:020f7e00080b5e
:020f7f00080b5d
:020f8000080b5c
:020f8100080b5b
:020f8200080b5a
:020f8300080a5a
:020f8400080a59
:020f8500080a58
:020f8600080a57
:020f8700080a56
:020f8800080a55
:020f8900080a54
:020f8a00080954
:020f8b00080953
:020f8c00080952
:020f8d00080951
:020f8e00080950
:020f8f0008094f
:020f900008094e
:020f910008084e
:020f920008084d
:020f930008084c
:020f940008084b
:020f950008084a
:020f9600080849
:020f9700080848
:020f9800080847
:020f9900080747
:020f9a00080746
:020f9b00080745
:020f9c00080744
:020f9d00080743
:020f9e00080742
:020f9f00080741
