:020000000000fe
:020001000002fb
:020002000003f9
:020003000005f6
:020004000006f4
:020005000008f1
:020006000009ef
:02000700000bec
:02000800000de9
:02000900000ee7
:02000a000010e4
:02000b000011e2
:02000c000013df
:02000d000014dd
:02000e000016da
:02000f000018d7
:020010000019d5
:02001100001bd2
:02001200001cd0
:02001300001ecd
:02001400001fcb
:020015000021c8
:020016000023c5
:020017000024c3
:020018000026c0
:020019000027be
:02001a000029bb
:02001b00002ab9
:02001c00002cb6
:02001d00002eb3
:02001e00002fb1
:02001f000031ae
:020020000032ac
:020021000034a9
:020022000035a7
:020023000037a4
:020024000039a1
:02002500003a9f
:02002600003c9c
:02002700003d9a
:02002800003f97
:02002900004095
:02002a00004292
:02002b00004390
:02002c0000458d
:02002d0000478a
:02002e00004888
:02002f00004a85
:02003000004b83
:02003100004d80
:02003200004e7e
:0200330000507b
:02003400005278
:02003500005376
:02003600005573
:02003700005671
:0200380000586e
:0200390000596c
:02003a00005b69
:02003b00005d66
:02003c00005e64
:02003d00006061
:02003e0000615f
:02003f0000635c
:0200400000645a
:02004100006657
:02004200006854
:02004300006952
:02004400006b4f
:02004500006c4d
:02004600006e4a
:02004700006f48
:02004800007145
:02004900007342
:02004a00007440
:02004b0000763d
:02004c0000773b
:02004d00007938
:02004e00007a36
:02004f00007c33
:02005000007e30
:02005100007f2e
:0200520000812b
:02005300008229
:02005400008426
:02005500008524
:02005600008721
:0200570000881f
:02005800008a1c
:02005900008c19
:02005a00008d17
:02005b00008f14
:02005c00009012
:02005d0000920f
:02005e0000930d
:02005f0000950a
:02006000009707
:02006100009805
:02006200009a02
:02006300009b00
:02006400009dfd
:02006500009efb
:0200660000a0f8
:0200670000a2f5
:0200680000a3f3
:0200690000a5f0
:02006a0000a6ee
:02006b0000a8eb
:02006c0000a9e9
:02006d0000abe6
:02006e0000ace4
:02006f0000aee1
:0200700000b0de
:0200710000b1dc
:0200720000b3d9
:0200730000b4d7
:0200740000b6d4
:0200750000b7d2
:0200760000b9cf
:0200770000bbcc
:0200780000bcca
:0200790000bec7
:02007a0000bfc5
:02007b0000c1c2
:02007c0000c2c0
:02007d0000c4bd
:02007e0000c6ba
:02007f0000c7b8
:0200800000c9b5
:0200810000cab3
:0200820000ccb0
:0200830000cdae
:0200840000cfab
:0200850000d0a9
:0200860000d2a6
:0200870000d4a3
:0200880000d5a1
:0200890000d79e
:02008a0000d89c
:02008b0000da99
:02008c0000db97
:02008d0000dd94
:02008e0000df91
:02008f0000e08f
:0200900000e28c
:0200910000e38a
:0200920000e587
:0200930000e685
:0200940000e882
:0200950000e980
:0200960000eb7d
:0200970000ed7a
:0200980000ee78
:0200990000f075
:02009a0000f173
:02009b0000f370
:02009c0000f46e
:02009d0000f66b
:02009e0000f769
:02009f0000f966
:0200a00000fb63
:0200a10000fc61
:0200a20000fe5e
:0200a30000ff5c
:0200a400010158
:0200a500010256
:0200a600010453
:0200a700010551
:0200a80001074e
:0200a90001094b
:0200aa00010a49
:0200ab00010c46
:0200ac00010d44
:0200ad00010f41
:0200ae0001103f
:0200af0001123c
:0200b00001133a
:0200b100011537
:0200b200011734
:0200b300011832
:0200b400011a2f
:0200b500011b2d
:0200b600011d2a
:0200b700011e28
:0200b800012025
:0200b900012123
:0200ba00012320
:0200bb0001251d
:0200bc0001261b
:0200bd00012818
:0200be00012916
:0200bf00012b13
:0200c000012c11
:0200c100012e0e
:0200c200012f0c
:0200c300013109
:0200c400013306
:0200c500013404
:0200c600013601
:0200c7000137ff
:0200c8000139fc
:0200c900013afa
:0200ca00013cf7
:0200cb00013df5
:0200cc00013ff2
:0200cd000141ef
:0200ce000142ed
:0200cf000144ea
:0200d0000145e8
:0200d1000147e5
:0200d2000148e3
:0200d300014ae0
:0200d400014bde
:0200d500014ddb
:0200d600014ed9
:0200d7000150d6
:0200d8000152d3
:0200d9000153d1
:0200da000155ce
:0200db000156cc
:0200dc000158c9
:0200dd000159c7
:0200de00015bc4
:0200df00015cc2
:0200e000015ebf
:0200e1000160bc
:0200e2000161ba
:0200e3000163b7
:0200e4000164b5
:0200e5000166b2
:0200e6000167b0
:0200e7000169ad
:0200e800016aab
:0200e900016ca8
:0200ea00016da6
:0200eb00016fa3
:0200ec000171a0
:0200ed0001729e
:0200ee0001749b
:0200ef00017599
:0200f000017796
:0200f100017894
:0200f200017a91
:0200f300017b8f
:0200f400017d8c
:0200f500017e8a
:0200f600018087
:0200f700018185
:0200f800018382
:0200f90001857f
:0200fa0001867d
:0200fb0001887a
:0200fc00018978
:0200fd00018b75
:0200fe00018c73
:0200ff00018e70
:02010000018f6d
:0201010001916a
:02010200019268
:02010300019465
:02010400019662
:02010500019760
:0201060001995d
:02010700019a5b
:02010800019c58
:02010900019d56
:02010a00019f53
:02010b0001a051
:02010c0001a24e
:02010d0001a34c
:02010e0001a549
:02010f0001a647
:0201100001a844
:0201110001a942
:0201120001ab3f
:0201130001ad3c
:0201140001ae3a
:0201150001b037
:0201160001b135
:0201170001b332
:0201180001b430
:0201190001b62d
:02011a0001b72b
:02011b0001b928
:02011c0001ba26
:02011d0001bc23
:02011e0001bd21
:02011f0001bf1e
:0201200001c11b
:0201210001c219
:0201220001c416
:0201230001c514
:0201240001c711
:0201250001c80f
:0201260001ca0c
:0201270001cb0a
:0201280001cd07
:0201290001ce05
:02012a0001d002
:02012b0001d100
:02012c0001d3fd
:02012d0001d4fb
:02012e0001d6f8
:02012f0001d7f6
:0201300001d9f3
:0201310001dbf0
:0201320001dcee
:0201330001deeb
:0201340001dfe9
:0201350001e1e6
:0201360001e2e4
:0201370001e4e1
:0201380001e5df
:0201390001e7dc
:02013a0001e8da
:02013b0001ead7
:02013c0001ebd5
:02013d0001edd2
:02013e0001eed0
:02013f0001f0cd
:0201400001f1cb
:0201410001f3c8
:0201420001f4c6
:0201430001f6c3
:0201440001f7c1
:0201450001f9be
:0201460001fbbb
:0201470001fcb9
:0201480001feb6
:0201490001ffb4
:02014a000201b0
:02014b000202ae
:02014c000204ab
:02014d000205a9
:02014e000207a6
:02014f000208a4
:02015000020aa1
:02015100020b9f
:02015200020d9c
:02015300020e9a
:02015400021097
:02015500021195
:02015600021392
:02015700021490
:0201580002168d
:0201590002178b
:02015a00021988
:02015b00021a86
:02015c00021c83
:02015d00021d81
:02015e00021f7e
:02015f0002207c
:02016000022279
:02016100022377
:02016200022574
:02016300022672
:0201640002286f
:02016500022a6c
:02016600022b6a
:02016700022d67
:02016800022e65
:02016900023062
:02016a00023160
:02016b0002335d
:02016c0002345b
:02016d00023658
:02016e00023756
:02016f00023953
:02017000023a51
:02017100023c4e
:02017200023d4c
:02017300023f49
:02017400024047
:02017500024244
:02017600024342
:0201770002453f
:0201780002463d
:0201790002483a
:02017a00024938
:02017b00024b35
:02017c00024c33
:02017d00024e30
:02017e00024f2e
:02017f0002512b
:02018000025229
:02018100025426
:02018200025524
:02018300025721
:0201840002581f
:02018500025a1c
:02018600025b1a
:02018700025d17
:02018800025e15
:02018900026012
:02018a00026110
:02018b0002630d
:02018c0002640b
:02018d00026608
:02018e00026706
:02018f00026903
:02019000026a01
:02019100026cfe
:02019200026dfc
:02019300026ff9
:020194000270f7
:020195000272f4
:020196000273f2
:020197000275ef
:020198000276ed
:020199000278ea
:02019a000279e8
:02019b00027be5
:02019c00027ce3
:02019d00027ee0
:02019e00027fde
:02019f000281db
:0201a0000282d9
:0201a1000284d6
:0201a2000285d4
:0201a3000287d1
:0201a4000288cf
:0201a500028acc
:0201a600028bca
:0201a700028dc7
:0201a800028ec5
:0201a9000290c2
:0201aa000291c0
:0201ab000292be
:0201ac000294bb
:0201ad000295b9
:0201ae000297b6
:0201af000298b4
:0201b000029ab1
:0201b100029baf
:0201b200029dac
:0201b300029eaa
:0201b40002a0a7
:0201b50002a1a5
:0201b60002a3a2
:0201b70002a4a0
:0201b80002a69d
:0201b90002a79b
:0201ba0002a998
:0201bb0002aa96
:0201bc0002ac93
:0201bd0002ad91
:0201be0002af8e
:0201bf0002b08c
:0201c00002b289
:0201c10002b387
:0201c20002b584
:0201c30002b682
:0201c40002b87f
:0201c50002b97d
:0201c60002ba7b
:0201c70002bc78
:0201c80002bd76
:0201c90002bf73
:0201ca0002c071
:0201cb0002c26e
:0201cc0002c36c
:0201cd0002c569
:0201ce0002c667
:0201cf0002c864
:0201d00002c962
:0201d10002cb5f
:0201d20002cc5d
:0201d30002ce5a
:0201d40002cf58
:0201d50002d155
:0201d60002d253
:0201d70002d450
:0201d80002d54e
:0201d90002d64c
:0201da0002d849
:0201db0002d947
:0201dc0002db44
:0201dd0002dc42
:0201de0002de3f
:0201df0002df3d
:0201e00002e13a
:0201e10002e238
:0201e20002e435
:0201e30002e533
:0201e40002e730
:0201e50002e82e
:0201e60002e92c
:0201e70002eb29
:0201e80002ec27
:0201e90002ee24
:0201ea0002ef22
:0201eb0002f11f
:0201ec0002f21d
:0201ed0002f41a
:0201ee0002f518
:0201ef0002f715
:0201f00002f813
:0201f10002fa10
:0201f20002fb0e
:0201f30002fc0c
:0201f40002fe09
:0201f50002ff07
:0201f600030103
:0201f700030201
:0201f8000304fe
:0201f9000305fc
:0201fa000307f9
:0201fb000308f7
:0201fc00030af4
:0201fd00030bf2
:0201fe00030cf0
:0201ff00030eed
:02020000030fea
:020201000311e7
:020202000312e5
:020203000314e2
:020204000315e0
:020205000317dd
:020206000318db
:020207000319d9
:02020800031bd6
:02020900031cd4
:02020a00031ed1
:02020b00031fcf
:02020c000321cc
:02020d000322ca
:02020e000324c7
:02020f000325c5
:020210000327c2
:020211000328c0
:020212000329be
:02021300032bbb
:02021400032cb9
:02021500032eb6
:02021600032fb4
:020217000331b1
:020218000332af
:020219000333ad
:02021a000335aa
:02021b000336a8
:02021c000338a5
:02021d000339a3
:02021e00033ba0
:02021f00033c9e
:02022000033e9b
:02022100033f99
:02022200034097
:02022300034294
:02022400034392
:0202250003458f
:0202260003468d
:0202270003488a
:02022800034988
:02022900034a86
:02022a00034c83
:02022b00034d81
:02022c00034f7e
:02022d0003507c
:02022e00035279
:02022f00035377
:02023000035475
:02023100035672
:02023200035770
:0202330003596d
:02023400035a6b
:02023500035c68
:02023600035d66
:02023700035e64
:02023800036061
:0202390003615f
:02023a0003635c
:02023b0003645a
:02023c00036657
:02023d00036755
:02023e00036853
:02023f00036a50
:02024000036b4e
:02024100036d4b
:02024200036e49
:02024300036f47
:02024400037144
:02024500037242
:0202460003743f
:0202470003753d
:0202480003773a
:02024900037838
:02024a00037936
:02024b00037b33
:02024c00037c31
:02024d00037e2e
:02024e00037f2c
:02024f0003802a
:02025000038227
:02025100038325
:02025200038522
:02025300038620
:0202540003871e
:0202550003891b
:02025600038a19
:02025700038c16
:02025800038d14
:02025900038f11
:02025a0003900f
:02025b0003910d
:02025c0003930a
:02025d00039408
:02025e00039605
:02025f00039703
:02026000039801
:02026100039afe
:02026200039bfc
:02026300039df9
:02026400039ef7
:02026500039ff5
:0202660003a1f2
:0202670003a2f0
:0202680003a4ed
:0202690003a5eb
:02026a0003a6e9
:02026b0003a8e6
:02026c0003a9e4
:02026d0003abe1
:02026e0003acdf
:02026f0003addd
:0202700003afda
:0202710003b0d8
:0202720003b2d5
:0202730003b3d3
:0202740003b4d1
:0202750003b6ce
:0202760003b7cc
:0202770003b8ca
:0202780003bac7
:0202790003bbc5
:02027a0003bdc2
:02027b0003bec0
:02027c0003bfbe
:02027d0003c1bb
:02027e0003c2b9
:02027f0003c4b6
:0202800003c5b4
:0202810003c6b2
:0202820003c8af
:0202830003c9ad
:0202840003caab
:0202850003cca8
:0202860003cda6
:0202870003cfa3
:0202880003d0a1
:0202890003d19f
:02028a0003d39c
:02028b0003d49a
:02028c0003d697
:02028d0003d795
:02028e0003d893
:02028f0003da90
:0202900003db8e
:0202910003dc8c
:0202920003de89
:0202930003df87
:0202940003e184
:0202950003e282
:0202960003e380
:0202970003e57d
:0202980003e67b
:0202990003e779
:02029a0003e976
:02029b0003ea74
:02029c0003eb72
:02029d0003ed6f
:02029e0003ee6d
:02029f0003f06a
:0202a00003f168
:0202a10003f266
:0202a20003f463
:0202a30003f561
:0202a40003f65f
:0202a50003f85c
:0202a60003f95a
:0202a70003fb57
:0202a80003fc55
:0202a90003fd53
:0202aa0003ff50
:0202ab0004004d
:0202ac0004014b
:0202ad00040348
:0202ae00040446
:0202af00040544
:0202b000040741
:0202b10004083f
:0202b20004093d
:0202b300040b3a
:0202b400040c38
:0202b500040e35
:0202b600040f33
:0202b700041031
:0202b80004122e
:0202b90004132c
:0202ba0004142a
:0202bb00041627
:0202bc00041725
:0202bd00041823
:0202be00041a20
:0202bf00041b1e
:0202c000041c1c
:0202c100041e19
:0202c200041f17
:0202c300042015
:0202c400042212
:0202c500042310
:0202c60004240e
:0202c70004260b
:0202c800042709
:0202c900042807
:0202ca00042a04
:0202cb00042b02
:0202cc00042c00
:0202cd00042efd
:0202ce00042ffb
:0202cf000430f9
:0202d0000432f6
:0202d1000433f4
:0202d2000435f1
:0202d3000436ef
:0202d4000437ed
:0202d5000439ea
:0202d600043ae8
:0202d700043be6
:0202d800043de3
:0202d900043ee1
:0202da00043fdf
:0202db000440dd
:0202dc000442da
:0202dd000443d8
:0202de000444d6
:0202df000446d3
:0202e0000447d1
:0202e1000448cf
:0202e200044acc
:0202e300044bca
:0202e400044cc8
:0202e500044ec5
:0202e600044fc3
:0202e7000450c1
:0202e8000452be
:0202e9000453bc
:0202ea000454ba
:0202eb000456b7
:0202ec000457b5
:0202ed000458b3
:0202ee00045ab0
:0202ef00045bae
:0202f000045cac
:0202f100045ea9
:0202f200045fa7
:0202f3000460a5
:0202f4000462a2
:0202f5000463a0
:0202f60004649e
:0202f70004659c
:0202f800046799
:0202f900046897
:0202fa00046995
:0202fb00046b92
:0202fc00046c90
:0202fd00046d8e
:0202fe00046f8b
:0202ff00047089
:02030000047186
:02030100047383
:02030200047481
:0203030004757f
:0203040004767d
:0203050004787a
:02030600047978
:02030700047a76
:02030800047c73
:02030900047d71
:02030a00047e6f
:02030b0004806c
:02030c0004816a
:02030d00048268
:02030e00048366
:02030f00048563
:02031000048661
:0203110004875f
:0203120004895c
:02031300048a5a
:02031400048b58
:02031500048d55
:02031600048e53
:02031700048f51
:0203180004904f
:0203190004924c
:02031a0004934a
:02031b00049448
:02031c00049645
:02031d00049743
:02031e00049841
:02031f0004993f
:02032000049b3c
:02032100049c3a
:02032200049d38
:02032300049f35
:0203240004a033
:0203250004a131
:0203260004a22f
:0203270004a42c
:0203280004a52a
:0203290004a628
:02032a0004a726
:02032b0004a923
:02032c0004aa21
:02032d0004ab1f
:02032e0004ad1c
:02032f0004ae1a
:0203300004af18
:0203310004b016
:0203320004b213
:0203330004b311
:0203340004b40f
:0203350004b50d
:0203360004b70a
:0203370004b808
:0203380004b906
:0203390004bb03
:02033a0004bc01
:02033b0004bdff
:02033c0004befd
:02033d0004c0fa
:02033e0004c1f8
:02033f0004c2f6
:0203400004c3f4
:0203410004c5f1
:0203420004c6ef
:0203430004c7ed
:0203440004c8eb
:0203450004cae8
:0203460004cbe6
:0203470004cce4
:0203480004cde2
:0203490004cfdf
:02034a0004d0dd
:02034b0004d1db
:02034c0004d2d9
:02034d0004d4d6
:02034e0004d5d4
:02034f0004d6d2
:0203500004d7d0
:0203510004d9cd
:0203520004dacb
:0203530004dbc9
:0203540004dcc7
:0203550004dec4
:0203560004dfc2
:0203570004e0c0
:0203580004e1be
:0203590004e3bb
:02035a0004e4b9
:02035b0004e5b7
:02035c0004e6b5
:02035d0004e8b2
:02035e0004e9b0
:02035f0004eaae
:0203600004ebac
:0203610004eda9
:0203620004eea7
:0203630004efa5
:0203640004f0a3
:0203650004f2a0
:0203660004f39e
:0203670004f49c
:0203680004f59a
:0203690004f698
:02036a0004f895
:02036b0004f993
:02036c0004fa91
:02036d0004fb8f
:02036e0004fd8c
:02036f0004fe8a
:0203700004ff88
:02037100050085
:02037200050282
:02037300050380
:0203740005047e
:0203750005057c
:0203760005067a
:02037700050877
:02037800050975
:02037900050a73
:02037a00050b71
:02037b00050d6e
:02037c00050e6c
:02037d00050f6a
:02037e00051068
:02037f00051166
:02038000051363
:02038100051461
:0203820005155f
:0203830005165d
:0203840005175b
:02038500051958
:02038600051a56
:02038700051b54
:02038800051c52
:02038900051d50
:02038a00051f4d
:02038b0005204b
:02038c00052149
:02038d00052247
:02038e00052444
:02038f00052542
:02039000052640
:0203910005273e
:0203920005283c
:02039300052a39
:02039400052b37
:02039500052c35
:02039600052d33
:02039700052e31
:0203980005302e
:0203990005312c
:02039a0005322a
:02039b00053328
:02039c00053426
:02039d00053524
:02039e00053721
:02039f0005381f
:0203a00005391d
:0203a100053a1b
:0203a200053b19
:0203a300053d16
:0203a400053e14
:0203a500053f12
:0203a600054010
:0203a70005410e
:0203a80005430b
:0203a900054409
:0203aa00054507
:0203ab00054605
:0203ac00054703
:0203ad00054801
:0203ae00054afe
:0203af00054bfc
:0203b000054cfa
:0203b100054df8
:0203b200054ef6
:0203b300054ff4
:0203b4000551f1
:0203b5000552ef
:0203b6000553ed
:0203b7000554eb
:0203b8000555e9
:0203b9000557e6
:0203ba000558e4
:0203bb000559e2
:0203bc00055ae0
:0203bd00055bde
:0203be00055cdc
:0203bf00055ed9
:0203c000055fd7
:0203c1000560d5
:0203c2000561d3
:0203c3000562d1
:0203c4000563cf
:0203c5000564cd
:0203c6000566ca
:0203c7000567c8
:0203c8000568c6
:0203c9000569c4
:0203ca00056ac2
:0203cb00056bc0
:0203cc00056dbd
:0203cd00056ebb
:0203ce00056fb9
:0203cf000570b7
:0203d0000571b5
:0203d1000572b3
:0203d2000573b1
:0203d3000575ae
:0203d4000576ac
:0203d5000577aa
:0203d6000578a8
:0203d7000579a6
:0203d800057aa4
:0203d900057ca1
:0203da00057d9f
:0203db00057e9d
:0203dc00057f9b
:0203dd00058099
:0203de00058197
:0203df00058295
:0203e000058393
:0203e100058590
:0203e20005868e
:0203e30005878c
:0203e40005888a
:0203e500058988
:0203e600058a86
:0203e700058b84
:0203e800058d81
:0203e900058e7f
:0203ea00058f7d
:0203eb0005907b
:0203ec00059179
:0203ed00059277
:0203ee00059375
:0203ef00059473
:0203f000059670
:0203f10005976e
:0203f20005986c
:0203f30005996a
:0203f400059a68
:0203f500059b66
:0203f600059c64
:0203f700059d62
:0203f800059f5f
:0203f90005a05d
:0203fa0005a15b
:0203fb0005a259
:0203fc0005a357
:0203fd0005a455
:0203fe0005a553
:0203ff0005a651
:0204000005a74e
:0204010005a94b
:0204020005aa49
:0204030005ab47
:0204040005ac45
:0204050005ad43
:0204060005ae41
:0204070005af3f
:0204080005b03d
:0204090005b13b
:02040a0005b338
:02040b0005b436
:02040c0005b534
:02040d0005b632
:02040e0005b730
:02040f0005b82e
:0204100005b92c
:0204110005ba2a
:0204120005bb28
:0204130005bc26
:0204140005bd24
:0204150005bf21
:0204160005c01f
:0204170005c11d
:0204180005c21b
:0204190005c319
:02041a0005c417
:02041b0005c515
:02041c0005c613
:02041d0005c711
:02041e0005c80f
:02041f0005c90d
:0204200005cb0a
:0204210005cc08
:0204220005cd06
:0204230005ce04
:0204240005cf02
:0204250005d000
:0204260005d1fe
:0204270005d2fc
:0204280005d3fa
:0204290005d4f8
:02042a0005d5f6
:02042b0005d6f4
:02042c0005d7f2
:02042d0005d9ef
:02042e0005daed
:02042f0005dbeb
:0204300005dce9
:0204310005dde7
:0204320005dee5
:0204330005dfe3
:0204340005e0e1
:0204350005e1df
:0204360005e2dd
:0204370005e3db
:0204380005e4d9
:0204390005e5d7
:02043a0005e6d5
:02043b0005e7d3
:02043c0005e9d0
:02043d0005eace
:02043e0005ebcc
:02043f0005ecca
:0204400005edc8
:0204410005eec6
:0204420005efc4
:0204430005f0c2
:0204440005f1c0
:0204450005f2be
:0204460005f3bc
:0204470005f4ba
:0204480005f5b8
:0204490005f6b6
:02044a0005f7b4
:02044b0005f8b2
:02044c0005f9b0
:02044d0005faae
:02044e0005fbac
:02044f0005fcaa
:0204500005fda8
:0204510005ffa5
:020452000600a2
:020453000601a0
:0204540006029e
:0204550006039c
:0204560006049a
:02045700060598
:02045800060696
:02045900060794
:02045a00060892
:02045b00060990
:02045c00060a8e
:02045d00060b8c
:02045e00060c8a
:02045f00060d88
:02046000060e86
:02046100060f84
:02046200061082
:02046300061180
:0204640006127e
:0204650006137c
:0204660006147a
:02046700061578
:02046800061676
:02046900061774
:02046a00061872
:02046b00061970
:02046c00061a6e
:02046d00061b6c
:02046e00061c6a
:02046f00061d68
:02047000061e66
:02047100061f64
:02047200062062
:02047300062160
:0204740006225e
:0204750006235c
:0204760006245a
:02047700062558
:02047800062656
:02047900062754
:02047a00062852
:02047b00062950
:02047c00062a4e
:02047d00062b4c
:02047e00062c4a
:02047f00062d48
:02048000062e46
:02048100062f44
:02048200063042
:02048300063140
:0204840006323e
:0204850006333c
:0204860006343a
:02048700063538
:02048800063636
:02048900063734
:02048a00063832
:02048b00063930
:02048c00063a2e
:02048d00063b2c
:02048e00063c2a
:02048f00063d28
:02049000063e26
:02049100063f24
:02049200064022
:02049300064120
:0204940006421e
:0204950006431c
:0204960006441a
:02049700064518
:02049800064616
:02049900064714
:02049a00064812
:02049b00064910
:02049c00064a0e
:02049d00064b0c
:02049e00064c0a
:02049f00064d08
:0204a000064e06
:0204a100064f04
:0204a200065002
:0204a300065100
:0204a4000652fe
:0204a5000653fc
:0204a6000654fa
:0204a7000654f9
:0204a8000655f7
:0204a9000656f5
:0204aa000657f3
:0204ab000658f1
:0204ac000659ef
:0204ad00065aed
:0204ae00065beb
:0204af00065ce9
:0204b000065de7
:0204b100065ee5
:0204b200065fe3
:0204b3000660e1
:0204b4000661df
:0204b5000662dd
:0204b6000663db
:0204b7000664d9
:0204b8000665d7
:0204b9000666d5
:0204ba000667d3
:0204bb000667d2
:0204bc000668d0
:0204bd000669ce
:0204be00066acc
:0204bf00066bca
:0204c000066cc8
:0204c100066dc6
:0204c200066ec4
:0204c300066fc2
:0204c4000670c0
:0204c5000671be
:0204c6000672bc
:0204c7000673ba
:0204c8000674b8
:0204c9000675b6
:0204ca000675b5
:0204cb000676b3
:0204cc000677b1
:0204cd000678af
:0204ce000679ad
:0204cf00067aab
:0204d000067ba9
:0204d100067ca7
:0204d200067da5
:0204d300067ea3
:0204d400067fa1
:0204d50006809f
:0204d60006819d
:0204d70006819c
:0204d80006829a
:0204d900068398
:0204da00068496
:0204db00068594
:0204dc00068692
:0204dd00068790
:0204de0006888e
:0204df0006898c
:0204e000068a8a
:0204e100068a89
:0204e200068b87
:0204e300068c85
:0204e400068d83
:0204e500068e81
:0204e600068f7f
:0204e70006907d
:0204e80006917b
:0204e900069279
:0204ea00069377
:0204eb00069376
:0204ec00069474
:0204ed00069572
:0204ee00069670
:0204ef0006976e
:0204f00006986c
:0204f10006996a
:0204f200069a68
:0204f300069b66
:0204f400069b65
:0204f500069c63
:0204f600069d61
:0204f700069e5f
:0204f800069f5d
:0204f90006a05b
:0204fa0006a159
:0204fb0006a257
:0204fc0006a355
:0204fd0006a354
:0204fe0006a452
:0204ff0006a550
:0205000006a64d
:0205010006a74b
:0205020006a849
:0205030006a947
:0205040006a946
:0205050006aa44
:0205060006ab42
:0205070006ac40
:0205080006ad3e
:0205090006ae3c
:02050a0006af3a
:02050b0006b038
:02050c0006b037
:02050d0006b135
:02050e0006b233
:02050f0006b331
:0205100006b42f
:0205110006b52d
:0205120006b62b
:0205130006b62a
:0205140006b728
:0205150006b826
:0205160006b924
:0205170006ba22
:0205180006bb20
:0205190006bc1e
:02051a0006bc1d
:02051b0006bd1b
:02051c0006be19
:02051d0006bf17
:02051e0006c015
:02051f0006c113
:0205200006c112
:0205210006c210
:0205220006c30e
:0205230006c40c
:0205240006c50a
:0205250006c608
:0205260006c607
:0205270006c705
:0205280006c803
:0205290006c901
:02052a0006caff
:02052b0006cbfd
:02052c0006cbfc
:02052d0006ccfa
:02052e0006cdf8
:02052f0006cef6
:0205300006cff4
:0205310006d0f2
:0205320006d0f1
:0205330006d1ef
:0205340006d2ed
:0205350006d3eb
:0205360006d4e9
:0205370006d4e8
:0205380006d5e6
:0205390006d6e4
:02053a0006d7e2
:02053b0006d8e0
:02053c0006d9de
:02053d0006d9dd
:02053e0006dadb
:02053f0006dbd9
:0205400006dcd7
:0205410006ddd5
:0205420006ddd4
:0205430006ded2
:0205440006dfd0
:0205450006e0ce
:0205460006e1cc
:0205470006e1cb
:0205480006e2c9
:0205490006e3c7
:02054a0006e4c5
:02054b0006e5c3
:02054c0006e5c2
:02054d0006e6c0
:02054e0006e7be
:02054f0006e8bc
:0205500006e9ba
:0205510006e9b9
:0205520006eab7
:0205530006ebb5
:0205540006ecb3
:0205550006ecb2
:0205560006edb0
:0205570006eeae
:0205580006efac
:0205590006f0aa
:02055a0006f0a9
:02055b0006f1a7
:02055c0006f2a5
:02055d0006f3a3
:02055e0006f4a1
:02055f0006f4a0
:0205600006f59e
:0205610006f69c
:0205620006f79a
:0205630006f799
:0205640006f897
:0205650006f995
:0205660006fa93
:0205670006fa92
:0205680006fb90
:0205690006fc8e
:02056a0006fd8c
:02056b0006fe8a
:02056c0006fe89
:02056d0006ff87
:02056e00070084
:02056f00070182
:02057000070181
:0205710007027f
:0205720007037d
:0205730007047b
:0205740007047a
:02057500070578
:02057600070676
:02057700070774
:02057800070773
:02057900070871
:02057a0007096f
:02057b00070a6d
:02057c00070a6c
:02057d00070b6a
:02057e00070c68
:02057f00070d66
:02058000070d65
:02058100070e63
:02058200070f61
:0205830007105f
:0205840007105e
:0205850007115c
:0205860007125a
:02058700071259
:02058800071357
:02058900071455
:02058a00071553
:02058b00071552
:02058c00071650
:02058d0007174e
:02058e0007184c
:02058f0007184b
:02059000071949
:02059100071a47
:02059200071a46
:02059300071b44
:02059400071c42
:02059500071d40
:02059600071d3f
:02059700071e3d
:02059800071f3b
:02059900071f3a
:02059a00072038
:02059b00072136
:02059c00072234
:02059d00072233
:02059e00072331
:02059f0007242f
:0205a00007242e
:0205a10007252c
:0205a20007262a
:0205a300072728
:0205a400072727
:0205a500072825
:0205a600072923
:0205a700072922
:0205a800072a20
:0205a900072b1e
:0205aa00072b1d
:0205ab00072c1b
:0205ac00072d19
:0205ad00072e17
:0205ae00072e16
:0205af00072f14
:0205b000073012
:0205b100073011
:0205b20007310f
:0205b30007320d
:0205b40007320c
:0205b50007330a
:0205b600073408
:0205b700073407
:0205b800073505
:0205b900073603
:0205ba00073602
:0205bb00073700
:0205bc000738fe
:0205bd000738fd
:0205be000739fb
:0205bf00073af9
:0205c000073af8
:0205c100073bf6
:0205c200073cf4
:0205c300073cf3
:0205c400073df1
:0205c500073eef
:0205c600073eee
:0205c700073fec
:0205c8000740ea
:0205c9000740e9
:0205ca000741e7
:0205cb000742e5
:0205cc000742e4
:0205cd000743e2
:0205ce000744e0
:0205cf000744df
:0205d0000745dd
:0205d1000746db
:0205d2000746da
:0205d3000747d8
:0205d4000748d6
:0205d5000748d5
:0205d6000749d3
:0205d700074ad1
:0205d800074ad0
:0205d900074bce
:0205da00074ccc
:0205db00074ccb
:0205dc00074dc9
:0205dd00074dc8
:0205de00074ec6
:0205df00074fc4
:0205e000074fc3
:0205e1000750c1
:0205e2000751bf
:0205e3000751be
:0205e4000752bc
:0205e5000753ba
:0205e6000753b9
:0205e7000754b7
:0205e8000754b6
:0205e9000755b4
:0205ea000756b2
:0205eb000756b1
:0205ec000757af
:0205ed000758ad
:0205ee000758ac
:0205ef000759aa
:0205f0000759a9
:0205f100075aa7
:0205f200075ba5
:0205f300075ba4
:0205f400075ca2
:0205f500075da0
:0205f600075d9f
:0205f700075e9d
:0205f800075e9c
:0205f900075f9a
:0205fa00076098
:0205fb00076097
:0205fc00076195
:0205fd00076194
:0205fe00076292
:0205ff00076390
:0206000007638e
:0206010007648c
:0206020007648b
:02060300076589
:02060400076687
:02060500076686
:02060600076784
:02060700076783
:02060800076881
:0206090007697f
:02060a0007697e
:02060b00076a7c
:02060c00076a7b
:02060d00076b79
:02060e00076b78
:02060f00076c76
:02061000076d74
:02061100076d73
:02061200076e71
:02061300076e70
:02061400076f6e
:0206150007706c
:0206160007706b
:02061700077169
:02061800077168
:02061900077266
:02061a00077265
:02061b00077363
:02061c00077461
:02061d00077460
:02061e0007755e
:02061f0007755d
:0206200007765b
:0206210007765a
:02062200077758
:02062300077856
:02062400077855
:02062500077953
:02062600077952
:02062700077a50
:02062800077a4f
:02062900077b4d
:02062a00077b4c
:02062b00077c4a
:02062c00077d48
:02062d00077d47
:02062e00077e45
:02062f00077e44
:02063000077f42
:02063100077f41
:0206320007803f
:0206330007803e
:0206340007813c
:0206350007813b
:02063600078239
:02063700078337
:02063800078336
:02063900078434
:02063a00078433
:02063b00078531
:02063c00078530
:02063d0007862e
:02063e0007862d
:02063f0007872b
:0206400007872a
:02064100078828
:02064200078827
:02064300078925
:02064400078924
:02064500078a22
:02064600078a21
:02064700078b1f
:02064800078c1d
:02064900078c1c
:02064a00078d1a
:02064b00078d19
:02064c00078e17
:02064d00078e16
:02064e00078f14
:02064f00078f13
:02065000079011
:02065100079010
:0206520007910e
:0206530007910d
:0206540007920b
:0206550007920a
:02065600079308
:02065700079307
:02065800079405
:02065900079404
:02065a00079502
:02065b00079501
:02065c000796ff
:02065d000796fe
:02065e000797fc
:02065f000797fb
:020660000798f9
:020661000798f8
:020662000799f6
:020663000799f5
:02066400079af3
:02066500079af2
:02066600079bf0
:02066700079bef
:02066800079ced
:02066900079cec
:02066a00079dea
:02066b00079de9
:02066c00079ee7
:02066d00079ee6
:02066e00079ee5
:02066f00079fe3
:02067000079fe2
:0206710007a0e0
:0206720007a0df
:0206730007a1dd
:0206740007a1dc
:0206750007a2da
:0206760007a2d9
:0206770007a3d7
:0206780007a3d6
:0206790007a4d4
:02067a0007a4d3
:02067b0007a5d1
:02067c0007a5d0
:02067d0007a5cf
:02067e0007a6cd
:02067f0007a6cc
:0206800007a7ca
:0206810007a7c9
:0206820007a8c7
:0206830007a8c6
:0206840007a9c4
:0206850007a9c3
:0206860007aac1
:0206870007aac0
:0206880007aabf
:0206890007abbd
:02068a0007abbc
:02068b0007acba
:02068c0007acb9
:02068d0007adb7
:02068e0007adb6
:02068f0007aeb4
:0206900007aeb3
:0206910007aeb2
:0206920007afb0
:0206930007afaf
:0206940007b0ad
:0206950007b0ac
:0206960007b1aa
:0206970007b1a9
:0206980007b1a8
:0206990007b2a6
:02069a0007b2a5
:02069b0007b3a3
:02069c0007b3a2
:02069d0007b4a0
:02069e0007b49f
:02069f0007b49e
:0206a00007b59c
:0206a10007b59b
:0206a20007b699
:0206a30007b698
:0206a40007b796
:0206a50007b795
:0206a60007b794
:0206a70007b892
:0206a80007b891
:0206a90007b98f
:0206aa0007b98e
:0206ab0007b98d
:0206ac0007ba8b
:0206ad0007ba8a
:0206ae0007bb88
:0206af0007bb87
:0206b00007bb86
:0206b10007bc84
:0206b20007bc83
:0206b30007bd81
:0206b40007bd80
:0206b50007bd7f
:0206b60007be7d
:0206b70007be7c
:0206b80007bf7a
:0206b90007bf79
:0206ba0007bf78
:0206bb0007c076
:0206bc0007c075
:0206bd0007c173
:0206be0007c172
:0206bf0007c171
:0206c00007c26f
:0206c10007c26e
:0206c20007c26d
:0206c30007c36b
:0206c40007c36a
:0206c50007c468
:0206c60007c467
:0206c70007c466
:0206c80007c564
:0206c90007c563
:0206ca0007c562
:0206cb0007c660
:0206cc0007c65f
:0206cd0007c75d
:0206ce0007c75c
:0206cf0007c75b
:0206d00007c859
:0206d10007c858
:0206d20007c857
:0206d30007c955
:0206d40007c954
:0206d50007c953
:0206d60007ca51
:0206d70007ca50
:0206d80007ca4f
:0206d90007cb4d
:0206da0007cb4c
:0206db0007cc4a
:0206dc0007cc49
:0206dd0007cc48
:0206de0007cd46
:0206df0007cd45
:0206e00007cd44
:0206e10007ce42
:0206e20007ce41
:0206e30007ce40
:0206e40007cf3e
:0206e50007cf3d
:0206e60007cf3c
:0206e70007d03a
:0206e80007d039
:0206e90007d038
:0206ea0007d136
:0206eb0007d135
:0206ec0007d134
:0206ed0007d232
:0206ee0007d231
:0206ef0007d230
:0206f00007d32e
:0206f10007d32d
:0206f20007d32c
:0206f30007d42a
:0206f40007d429
:0206f50007d428
:0206f60007d526
:0206f70007d525
:0206f80007d524
:0206f90007d523
:0206fa0007d621
:0206fb0007d620
:0206fc0007d61f
:0206fd0007d71d
:0206fe0007d71c
:0206ff0007d71b
:0207000007d818
:0207010007d817
:0207020007d816
:0207030007d914
:0207040007d913
:0207050007d912
:0207060007d911
:0207070007da0f
:0207080007da0e
:0207090007da0d
:02070a0007db0b
:02070b0007db0a
:02070c0007db09
:02070d0007dc07
:02070e0007dc06
:02070f0007dc05
:0207100007dc04
:0207110007dd02
:0207120007dd01
:0207130007dd00
:0207140007defe
:0207150007defd
:0207160007defc
:0207170007defb
:0207180007dff9
:0207190007dff8
:02071a0007dff7
:02071b0007e0f5
:02071c0007e0f4
:02071d0007e0f3
:02071e0007e0f2
:02071f0007e1f0
:0207200007e1ef
:0207210007e1ee
:0207220007e1ed
:0207230007e2eb
:0207240007e2ea
:0207250007e2e9
:0207260007e2e8
:0207270007e3e6
:0207280007e3e5
:0207290007e3e4
:02072a0007e3e3
:02072b0007e4e1
:02072c0007e4e0
:02072d0007e4df
:02072e0007e5dd
:02072f0007e5dc
:0207300007e5db
:0207310007e5da
:0207320007e6d8
:0207330007e6d7
:0207340007e6d6
:0207350007e6d5
:0207360007e6d4
:0207370007e7d2
:0207380007e7d1
:0207390007e7d0
:02073a0007e7cf
:02073b0007e8cd
:02073c0007e8cc
:02073d0007e8cb
:02073e0007e8ca
:02073f0007e9c8
:0207400007e9c7
:0207410007e9c6
:0207420007e9c5
:0207430007eac3
:0207440007eac2
:0207450007eac1
:0207460007eac0
:0207470007eabf
:0207480007ebbd
:0207490007ebbc
:02074a0007ebbb
:02074b0007ebba
:02074c0007ecb8
:02074d0007ecb7
:02074e0007ecb6
:02074f0007ecb5
:0207500007ecb4
:0207510007edb2
:0207520007edb1
:0207530007edb0
:0207540007edaf
:0207550007edae
:0207560007eeac
:0207570007eeab
:0207580007eeaa
:0207590007eea9
:02075a0007eea8
:02075b0007efa6
:02075c0007efa5
:02075d0007efa4
:02075e0007efa3
:02075f0007efa2
:0207600007f0a0
:0207610007f09f
:0207620007f09e
:0207630007f09d
:0207640007f09c
:0207650007f19a
:0207660007f199
:0207670007f198
:0207680007f197
:0207690007f196
:02076a0007f195
:02076b0007f293
:02076c0007f292
:02076d0007f291
:02076e0007f290
:02076f0007f28f
:0207700007f38d
:0207710007f38c
:0207720007f38b
:0207730007f38a
:0207740007f389
:0207750007f388
:0207760007f486
:0207770007f485
:0207780007f484
:0207790007f483
:02077a0007f482
:02077b0007f481
:02077c0007f57f
:02077d0007f57e
:02077e0007f57d
:02077f0007f57c
:0207800007f57b
:0207810007f57a
:0207820007f579
:0207830007f677
:0207840007f676
:0207850007f675
:0207860007f674
:0207870007f673
:0207880007f672
:0207890007f671
:02078a0007f76f
:02078b0007f76e
:02078c0007f76d
:02078d0007f76c
:02078e0007f76b
:02078f0007f76a
:0207900007f769
:0207910007f867
:0207920007f866
:0207930007f865
:0207940007f864
:0207950007f863
:0207960007f862
:0207970007f861
:0207980007f860
:0207990007f95e
:02079a0007f95d
:02079b0007f95c
:02079c0007f95b
:02079d0007f95a
:02079e0007f959
:02079f0007f958
:0207a00007f957
:0207a10007fa55
:0207a20007fa54
:0207a30007fa53
:0207a40007fa52
:0207a50007fa51
:0207a60007fa50
:0207a70007fa4f
:0207a80007fa4e
:0207a90007fa4d
:0207aa0007fb4b
:0207ab0007fb4a
:0207ac0007fb49
:0207ad0007fb48
:0207ae0007fb47
:0207af0007fb46
:0207b00007fb45
:0207b10007fb44
:0207b20007fb43
:0207b30007fb42
:0207b40007fc40
:0207b50007fc3f
:0207b60007fc3e
:0207b70007fc3d
:0207b80007fc3c
:0207b90007fc3b
:0207ba0007fc3a
:0207bb0007fc39
:0207bc0007fc38
:0207bd0007fc37
:0207be0007fc36
:0207bf0007fc35
:0207c00007fd33
:0207c10007fd32
:0207c20007fd31
:0207c30007fd30
:0207c40007fd2f
:0207c50007fd2e
:0207c60007fd2d
:0207c70007fd2c
:0207c80007fd2b
:0207c90007fd2a
:0207ca0007fd29
:0207cb0007fd28
:0207cc0007fd27
:0207cd0007fd26
:0207ce0007fd25
:0207cf0007fe23
:0207d00007fe22
:0207d10007fe21
:0207d20007fe20
:0207d30007fe1f
:0207d40007fe1e
:0207d50007fe1d
:0207d60007fe1c
:0207d70007fe1b
:0207d80007fe1a
:0207d90007fe19
:0207da0007fe18
:0207db0007fe17
:0207dc0007fe16
:0207dd0007fe15
:0207de0007fe14
:0207df0007fe13
:0207e00007fe12
:0207e10007fe11
:0207e20007fe10
:0207e30007fe0f
:0207e40007ff0d
:0207e50007ff0c
:0207e60007ff0b
:0207e70007ff0a
:0207e80007ff09
:0207e90007ff08
:0207ea0007ff07
:0207eb0007ff06
:0207ec0007ff05
:0207ed0007ff04
:0207ee0007ff03
:0207ef0007ff02
:0207f00007ff01
:0207f10007ff00
:0207f20007ffff
:0207f30007fffe
:0207f40007fffd
:0207f50007fffc
:0207f60007fffb
:0207f70007fffa
:0207f80007fff9
:0207f90007fff8
:0207fa0007fff7
:0207fb0007fff6
:0207fc0007fff5
:0207fd0007fff4
:0207fe0007fff3
:0207ff0007fff2
:0208000007fff0
:0208010007ffef
:0208020007ffee
:0208030007ffed
:0208040007ffec
:0208050007ffeb
:0208060007ffea
:0208070007ffe9
:0208080007ffe8
:0208090007ffe7
:02080a0007ffe6
:02080b0007ffe5
:02080c0007ffe4
:02080d0007ffe3
:02080e0007ffe2
:02080f0007ffe1
:0208100007ffe0
:0208110007ffdf
:0208120007ffde
:0208130007ffdd
:0208140007ffdc
:0208150007ffdb
:0208160007ffda
:0208170007ffd9
:0208180007ffd8
:0208190007ffd7
:02081a0007ffd6
:02081b0007ffd5
:02081c0007ffd4
:02081d0007fed4
:02081e0007fed3
:02081f0007fed2
:0208200007fed1
:0208210007fed0
:0208220007fecf
:0208230007fece
:0208240007fecd
:0208250007fecc
:0208260007fecb
:0208270007feca
:0208280007fec9
:0208290007fec8
:02082a0007fec7
:02082b0007fec6
:02082c0007fec5
:02082d0007fec4
:02082e0007fec3
:02082f0007fec2
:0208300007fec1
:0208310007fec0
:0208320007fdc0
:0208330007fdbf
:0208340007fdbe
:0208350007fdbd
:0208360007fdbc
:0208370007fdbb
:0208380007fdba
:0208390007fdb9
:02083a0007fdb8
:02083b0007fdb7
:02083c0007fdb6
:02083d0007fdb5
:02083e0007fdb4
:02083f0007fdb3
:0208400007fdb2
:0208410007fcb2
:0208420007fcb1
:0208430007fcb0
:0208440007fcaf
:0208450007fcae
:0208460007fcad
:0208470007fcac
:0208480007fcab
:0208490007fcaa
:02084a0007fca9
:02084b0007fca8
:02084c0007fca7
:02084d0007fba7
:02084e0007fba6
:02084f0007fba5
:0208500007fba4
:0208510007fba3
:0208520007fba2
:0208530007fba1
:0208540007fba0
:0208550007fb9f
:0208560007fb9e
:0208570007fa9e
:0208580007fa9d
:0208590007fa9c
:02085a0007fa9b
:02085b0007fa9a
:02085c0007fa99
:02085d0007fa98
:02085e0007fa97
:02085f0007fa96
:0208600007f996
:0208610007f995
:0208620007f994
:0208630007f993
:0208640007f992
:0208650007f991
:0208660007f990
:0208670007f98f
:0208680007f88f
:0208690007f88e
:02086a0007f88d
:02086b0007f88c
:02086c0007f88b
:02086d0007f88a
:02086e0007f889
:02086f0007f888
:0208700007f788
:0208710007f787
:0208720007f786
:0208730007f785
:0208740007f784
:0208750007f783
:0208760007f782
:0208770007f682
:0208780007f681
:0208790007f680
:02087a0007f67f
:02087b0007f67e
:02087c0007f67d
:02087d0007f67c
:02087e0007f57c
:02087f0007f57b
:0208800007f57a
:0208810007f579
:0208820007f578
:0208830007f577
:0208840007f576
:0208850007f476
:0208860007f475
:0208870007f474
:0208880007f473
:0208890007f472
:02088a0007f471
:02088b0007f371
:02088c0007f370
:02088d0007f36f
:02088e0007f36e
:02088f0007f36d
:0208900007f36c
:0208910007f26c
:0208920007f26b
:0208930007f26a
:0208940007f269
:0208950007f268
:0208960007f168
:0208970007f167
:0208980007f166
:0208990007f165
:02089a0007f164
:02089b0007f163
:02089c0007f063
:02089d0007f062
:02089e0007f061
:02089f0007f060
:0208a00007f05f
:0208a10007ef5f
:0208a20007ef5e
:0208a30007ef5d
:0208a40007ef5c
:0208a50007ef5b
:0208a60007ee5b
:0208a70007ee5a
:0208a80007ee59
:0208a90007ee58
:0208aa0007ee57
:0208ab0007ed57
:0208ac0007ed56
:0208ad0007ed55
:0208ae0007ed54
:0208af0007ed53
:0208b00007ec53
:0208b10007ec52
:0208b20007ec51
:0208b30007ec50
:0208b40007ec4f
:0208b50007eb4f
:0208b60007eb4e
:0208b70007eb4d
:0208b80007eb4c
:0208b90007ea4c
:0208ba0007ea4b
:0208bb0007ea4a
:0208bc0007ea49
:0208bd0007ea48
:0208be0007e948
:0208bf0007e947
:0208c00007e946
:0208c10007e945
:0208c20007e845
:0208c30007e844
:0208c40007e843
:0208c50007e842
:0208c60007e742
:0208c70007e741
:0208c80007e740
:0208c90007e73f
:0208ca0007e63f
:0208cb0007e63e
:0208cc0007e63d
:0208cd0007e63c
:0208ce0007e63b
:0208cf0007e53b
:0208d00007e53a
:0208d10007e539
:0208d20007e538
:0208d30007e438
:0208d40007e437
:0208d50007e436
:0208d60007e336
:0208d70007e335
:0208d80007e334
:0208d90007e333
:0208da0007e233
:0208db0007e232
:0208dc0007e231
:0208dd0007e230
:0208de0007e130
:0208df0007e12f
:0208e00007e12e
:0208e10007e12d
:0208e20007e02d
:0208e30007e02c
:0208e40007e02b
:0208e50007e02a
:0208e60007df2a
:0208e70007df29
:0208e80007df28
:0208e90007de28
:0208ea0007de27
:0208eb0007de26
:0208ec0007de25
:0208ed0007dd25
:0208ee0007dd24
:0208ef0007dd23
:0208f00007dc23
:0208f10007dc22
:0208f20007dc21
:0208f30007dc20
:0208f40007db20
:0208f50007db1f
:0208f60007db1e
:0208f70007da1e
:0208f80007da1d
:0208f90007da1c
:0208fa0007d91c
:0208fb0007d91b
:0208fc0007d91a
:0208fd0007d919
:0208fe0007d819
:0208ff0007d818
:0209000007d816
:0209010007d716
:0209020007d715
:0209030007d714
:0209040007d614
:0209050007d613
:0209060007d612
:0209070007d512
:0209080007d511
:0209090007d510
:02090a0007d50f
:02090b0007d40f
:02090c0007d40e
:02090d0007d40d
:02090e0007d30d
:02090f0007d30c
:0209100007d30b
:0209110007d20b
:0209120007d20a
:0209130007d209
:0209140007d109
:0209150007d108
:0209160007d107
:0209170007d007
:0209180007d006
:0209190007d005
:02091a0007cf05
:02091b0007cf04
:02091c0007cf03
:02091d0007ce03
:02091e0007ce02
:02091f0007ce01
:0209200007cd01
:0209210007cd00
:0209220007cdff
:0209230007ccff
:0209240007ccfe
:0209250007ccfd
:0209260007cbfd
:0209270007cbfc
:0209280007cafc
:0209290007cafb
:02092a0007cafa
:02092b0007c9fa
:02092c0007c9f9
:02092d0007c9f8
:02092e0007c8f8
:02092f0007c8f7
:0209300007c8f6
:0209310007c7f6
:0209320007c7f5
:0209330007c7f4
:0209340007c6f4
:0209350007c6f3
:0209360007c5f3
:0209370007c5f2
:0209380007c5f1
:0209390007c4f1
:02093a0007c4f0
:02093b0007c4ef
:02093c0007c3ef
:02093d0007c3ee
:02093e0007c2ee
:02093f0007c2ed
:0209400007c2ec
:0209410007c1ec
:0209420007c1eb
:0209430007c1ea
:0209440007c0ea
:0209450007c0e9
:0209460007bfe9
:0209470007bfe8
:0209480007bfe7
:0209490007bee7
:02094a0007bee6
:02094b0007bde6
:02094c0007bde5
:02094d0007bde4
:02094e0007bce4
:02094f0007bce3
:0209500007bbe3
:0209510007bbe2
:0209520007bbe1
:0209530007bae1
:0209540007bae0
:0209550007b9e0
:0209560007b9df
:0209570007b9de
:0209580007b8de
:0209590007b8dd
:02095a0007b7dd
:02095b0007b7dc
:02095c0007b7db
:02095d0007b6db
:02095e0007b6da
:02095f0007b5da
:0209600007b5d9
:0209610007b4d9
:0209620007b4d8
:0209630007b4d7
:0209640007b3d7
:0209650007b3d6
:0209660007b2d6
:0209670007b2d5
:0209680007b1d5
:0209690007b1d4
:02096a0007b1d3
:02096b0007b0d3
:02096c0007b0d2
:02096d0007afd2
:02096e0007afd1
:02096f0007aed1
:0209700007aed0
:0209710007aecf
:0209720007adcf
:0209730007adce
:0209740007acce
:0209750007accd
:0209760007abcd
:0209770007abcc
:0209780007aacc
:0209790007aacb
:02097a0007aaca
:02097b0007a9ca
:02097c0007a9c9
:02097d0007a8c9
:02097e0007a8c8
:02097f0007a7c8
:0209800007a7c7
:0209810007a6c7
:0209820007a6c6
:0209830007a5c6
:0209840007a5c5
:0209850007a5c4
:0209860007a4c4
:0209870007a4c3
:0209880007a3c3
:0209890007a3c2
:02098a0007a2c2
:02098b0007a2c1
:02098c0007a1c1
:02098d0007a1c0
:02098e0007a0c0
:02098f0007a0bf
:02099000079fbf
:02099100079fbe
:02099200079ebe
:02099300079ebd
:02099400079ebc
:02099500079dbc
:02099600079dbb
:02099700079cbb
:02099800079cba
:02099900079bba
:02099a00079bb9
:02099b00079ab9
:02099c00079ab8
:02099d000799b8
:02099e000799b7
:02099f000798b7
:0209a0000798b6
:0209a1000797b6
:0209a2000797b5
:0209a3000796b5
:0209a4000796b4
:0209a5000795b4
:0209a6000795b3
:0209a7000794b3
:0209a8000794b2
:0209a9000793b2
:0209aa000793b1
:0209ab000792b1
:0209ac000792b0
:0209ad000791b0
:0209ae000791af
:0209af000790af
:0209b0000790ae
:0209b100078fae
:0209b200078fad
:0209b300078ead
:0209b400078eac
:0209b500078dac
:0209b600078dab
:0209b700078cab
:0209b800078caa
:0209b900078baa
:0209ba00078aaa
:0209bb00078aa9
:0209bc000789a9
:0209bd000789a8
:0209be000788a8
:0209bf000788a7
:0209c0000787a7
:0209c1000787a6
:0209c2000786a6
:0209c3000786a5
:0209c4000785a5
:0209c5000785a4
:0209c6000784a4
:0209c7000784a3
:0209c8000783a3
:0209c9000783a2
:0209ca000782a2
:0209cb000781a2
:0209cc000781a1
:0209cd000780a1
:0209ce000780a0
:0209cf00077fa0
:0209d000077f9f
:0209d100077e9f
:0209d200077e9e
:0209d300077d9e
:0209d400077d9d
:0209d500077c9d
:0209d600077b9d
:0209d700077b9c
:0209d800077a9c
:0209d900077a9b
:0209da0007799b
:0209db0007799a
:0209dc0007789a
:0209dd00077899
:0209de00077799
:0209df00077699
:0209e000077698
:0209e100077598
:0209e200077597
:0209e300077497
:0209e400077496
:0209e500077396
:0209e600077296
:0209e700077295
:0209e800077195
:0209e900077194
:0209ea00077094
:0209eb00077093
:0209ec00076f93
:0209ed00076e93
:0209ee00076e92
:0209ef00076d92
:0209f000076d91
:0209f100076c91
:0209f200076b91
:0209f300076b90
:0209f400076a90
:0209f500076a8f
:0209f60007698f
:0209f70007698e
:0209f80007688e
:0209f90007678e
:0209fa0007678d
:0209fb0007668d
:0209fc0007668c
:0209fd0007658c
:0209fe0007648c
:0209ff0007648b
:020a000007638a
:020a0100076389
:020a0200076289
:020a0300076189
:020a0400076188
:020a0500076088
:020a0600076087
:020a0700075f87
:020a0800075e87
:020a0900075e86
:020a0a00075d86
:020a0b00075d85
:020a0c00075c85
:020a0d00075b85
:020a0e00075b84
:020a0f00075a84
:020a1000075984
:020a1100075983
:020a1200075883
:020a1300075882
:020a1400075782
:020a1500075682
:020a1600075681
:020a1700075581
:020a1800075481
:020a1900075480
:020a1a00075380
:020a1b0007537f
:020a1c0007527f
:020a1d0007517f
:020a1e0007517e
:020a1f0007507e
:020a2000074f7e
:020a2100074f7d
:020a2200074e7d
:020a2300074d7d
:020a2400074d7c
:020a2500074c7c
:020a2600074c7b
:020a2700074b7b
:020a2800074a7b
:020a2900074a7a
:020a2a0007497a
:020a2b0007487a
:020a2c00074879
:020a2d00074779
:020a2e00074679
:020a2f00074678
:020a3000074578
:020a3100074478
:020a3200074477
:020a3300074377
:020a3400074277
:020a3500074276
:020a3600074176
:020a3700074076
:020a3800074075
:020a3900073f75
:020a3a00073e75
:020a3b00073e74
:020a3c00073d74
:020a3d00073c74
:020a3e00073c73
:020a3f00073b73
:020a4000073a73
:020a4100073a72
:020a4200073972
:020a4300073872
:020a4400073871
:020a4500073771
:020a4600073671
:020a4700073670
:020a4800073570
:020a4900073470
:020a4a0007346f
:020a4b0007336f
:020a4c0007326f
:020a4d0007326e
:020a4e0007316e
:020a4f0007306e
:020a500007306d
:020a5100072f6d
:020a5200072e6d
:020a5300072e6c
:020a5400072d6c
:020a5500072c6c
:020a5600072b6c
:020a5700072b6b
:020a5800072a6b
:020a590007296b
:020a5a0007296a
:020a5b0007286a
:020a5c0007276a
:020a5d00072769
:020a5e00072669
:020a5f00072569
:020a6000072469
:020a6100072468
:020a6200072368
:020a6300072268
:020a6400072267
:020a6500072167
:020a6600072067
:020a6700071f67
:020a6800071f66
:020a6900071e66
:020a6a00071d66
:020a6b00071d65
:020a6c00071c65
:020a6d00071b65
:020a6e00071a65
:020a6f00071a64
:020a7000071964
:020a7100071864
:020a7200071863
:020a7300071763
:020a7400071663
:020a7500071563
:020a7600071562
:020a7700071462
:020a7800071362
:020a7900071262
:020a7a00071261
:020a7b00071161
:020a7c00071061
:020a7d00071060
:020a7e00070f60
:020a7f00070e60
:020a8000070d60
:020a8100070d5f
:020a8200070c5f
:020a8300070b5f
:020a8400070a5f
:020a8500070a5e
:020a860007095e
:020a870007085e
:020a880007075e
:020a890007075d
:020a8a0007065d
:020a8b0007055d
:020a8c0007045d
:020a8d0007045c
:020a8e0007035c
:020a8f0007025c
:020a900007015c
:020a910007015b
:020a920007005b
:020a930006ff5c
:020a940006fe5c
:020a950006fe5b
:020a960006fd5b
:020a970006fc5b
:020a980006fb5b
:020a990006fa5b
:020a9a0006fa5a
:020a9b0006f95a
:020a9c0006f85a
:020a9d0006f75a
:020a9e0006f759
:020a9f0006f659
:020aa00006f559
:020aa10006f459
:020aa20006f458
:020aa30006f358
:020aa40006f258
:020aa50006f158
:020aa60006f058
:020aa70006f057
:020aa80006ef57
:020aa90006ee57
:020aaa0006ed57
:020aab0006ec57
:020aac0006ec56
:020aad0006eb56
:020aae0006ea56
:020aaf0006e956
:020ab00006e955
:020ab10006e855
:020ab20006e755
:020ab30006e655
:020ab40006e555
:020ab50006e554
:020ab60006e454
:020ab70006e354
:020ab80006e254
:020ab90006e154
:020aba0006e153
:020abb0006e053
:020abc0006df53
:020abd0006de53
:020abe0006dd53
:020abf0006dd52
:020ac00006dc52
:020ac10006db52
:020ac20006da52
:020ac30006d952
:020ac40006d951
:020ac50006d851
:020ac60006d751
:020ac70006d651
:020ac80006d551
:020ac90006d451
:020aca0006d450
:020acb0006d350
:020acc0006d250
:020acd0006d150
:020ace0006d050
:020acf0006d04f
:020ad00006cf4f
:020ad10006ce4f
:020ad20006cd4f
:020ad30006cc4f
:020ad40006cb4f
:020ad50006cb4e
:020ad60006ca4e
:020ad70006c94e
:020ad80006c84e
:020ad90006c74e
:020ada0006c64e
:020adb0006c64d
:020adc0006c54d
:020add0006c44d
:020ade0006c34d
:020adf0006c24d
:020ae00006c14d
:020ae10006c14c
:020ae20006c04c
:020ae30006bf4c
:020ae40006be4c
:020ae50006bd4c
:020ae60006bc4c
:020ae70006bc4b
:020ae80006bb4b
:020ae90006ba4b
:020aea0006b94b
:020aeb0006b84b
:020aec0006b74b
:020aed0006b64b
:020aee0006b64a
:020aef0006b54a
:020af00006b44a
:020af10006b34a
:020af20006b24a
:020af30006b14a
:020af40006b04a
:020af50006b049
:020af60006af49
:020af70006ae49
:020af80006ad49
:020af90006ac49
:020afa0006ab49
:020afb0006aa49
:020afc0006a949
:020afd0006a948
:020afe0006a848
:020aff0006a748
:020b000006a647
:020b010006a547
:020b020006a447
:020b030006a347
:020b040006a346
:020b050006a246
:020b060006a146
:020b070006a046
:020b0800069f46
:020b0900069e46
:020b0a00069d46
:020b0b00069c46
:020b0c00069b46
:020b0d00069b45
:020b0e00069a45
:020b0f00069945
:020b1000069845
:020b1100069745
:020b1200069645
:020b1300069545
:020b1400069445
:020b1500069345
:020b1600069344
:020b1700069244
:020b1800069144
:020b1900069044
:020b1a00068f44
:020b1b00068e44
:020b1c00068d44
:020b1d00068c44
:020b1e00068b44
:020b1f00068a44
:020b2000068a43
:020b2100068943
:020b2200068843
:020b2300068743
:020b2400068643
:020b2500068543
:020b2600068443
:020b2700068343
:020b2800068243
:020b2900068143
:020b2a00068142
:020b2b00068042
:020b2c00067f42
:020b2d00067e42
:020b2e00067d42
:020b2f00067c42
:020b3000067b42
:020b3100067a42
:020b3200067942
:020b3300067842
:020b3400067742
:020b3500067642
:020b3600067542
:020b3700067541
:020b3800067441
:020b3900067341
:020b3a00067241
:020b3b00067141
:020b3c00067041
:020b3d00066f41
:020b3e00066e41
:020b3f00066d41
:020b4000066c41
:020b4100066b41
:020b4200066a41
:020b4300066941
:020b4400066841
:020b4500066741
:020b4600066740
:020b4700066640
:020b4800066540
:020b4900066440
:020b4a00066340
:020b4b00066240
:020b4c00066140
:020b4d00066040
:020b4e00065f40
:020b4f00065e40
:020b5000065d40
:020b5100065c40
:020b5200065b40
:020b5300065a40
:020b5400065940
:020b5500065840
:020b5600065740
:020b5700065640
:020b5800065540
:020b5900065440
:020b5a0006543f
:020b5b0006533f
:020b5c0006523f
:020b5d0006513f
:020b5e0006503f
:020b5f00064f3f
:020b6000064e3f
:020b6100064d3f
:020b6200064c3f
:020b6300064b3f
:020b6400064a3f
:020b650006493f
:020b660006483f
:020b670006473f
:020b680006463f
:020b690006453f
:020b6a0006443f
:020b6b0006433f
:020b6c0006423f
:020b6d0006413f
:020b6e0006403f
:020b6f00063f3f
:020b7000063e3f
:020b7100063d3f
:020b7200063c3f
:020b7300063b3f
:020b7400063a3f
:020b750006393f
:020b760006383f
:020b770006373f
:020b780006363f
:020b790006353f
:020b7a0006343f
:020b7b0006333f
:020b7c0006323f
:020b7d0006313f
:020b7e0006303f
:020b7f00062f3f
:020b8000062e3f
:020b8100062d3f
:020b8200062c3f
:020b8300062b3f
:020b8400062a3f
:020b850006293f
:020b860006283f
:020b870006273f
:020b880006263f
:020b890006253f
:020b8a0006243f
:020b8b0006233f
:020b8c0006223f
:020b8d0006213f
:020b8e0006203f
:020b8f00061f3f
:020b9000061e3f
:020b9100061d3f
:020b9200061c3f
:020b9300061b3f
:020b9400061a3f
:020b950006193f
:020b960006183f
:020b970006173f
:020b980006163f
:020b990006153f
:020b9a0006143f
:020b9b0006133f
:020b9c0006123f
:020b9d0006113f
:020b9e0006103f
:020b9f00060f3f
:020ba000060e3f
:020ba100060d3f
:020ba200060c3f
:020ba300060b3f
:020ba400060a3f
:020ba50006093f
:020ba60006083f
:020ba70006073f
:020ba80006063f
:020ba90006053f
:020baa0006043f
:020bab0006033f
:020bac0006023f
:020bad0006013f
:020bae0006003f
:020baf0005ff40
:020bb00005fd41
:020bb10005fc41
:020bb20005fb41
:020bb30005fa41
:020bb40005f941
:020bb50005f841
:020bb60005f741
:020bb70005f641
:020bb80005f541
:020bb90005f441
:020bba0005f341
:020bbb0005f241
:020bbc0005f141
:020bbd0005f041
:020bbe0005ef41
:020bbf0005ee41
:020bc00005ed41
:020bc10005ec41
:020bc20005eb41
:020bc30005ea41
:020bc40005e941
:020bc50005e742
:020bc60005e642
:020bc70005e542
:020bc80005e442
:020bc90005e342
:020bca0005e242
:020bcb0005e142
:020bcc0005e042
:020bcd0005df42
:020bce0005de42
:020bcf0005dd42
:020bd00005dc42
:020bd10005db42
:020bd20005da42
:020bd30005d942
:020bd40005d743
:020bd50005d643
:020bd60005d543
:020bd70005d443
:020bd80005d343
:020bd90005d243
:020bda0005d143
:020bdb0005d043
:020bdc0005cf43
:020bdd0005ce43
:020bde0005cd43
:020bdf0005cc43
:020be00005cb43
:020be10005c944
:020be20005c844
:020be30005c744
:020be40005c644
:020be50005c544
:020be60005c444
:020be70005c344
:020be80005c244
:020be90005c144
:020bea0005c044
:020beb0005bf44
:020bec0005bd45
:020bed0005bc45
:020bee0005bb45
:020bef0005ba45
:020bf00005b945
:020bf10005b845
:020bf20005b745
:020bf30005b645
:020bf40005b545
:020bf50005b445
:020bf60005b345
:020bf70005b146
:020bf80005b046
:020bf90005af46
:020bfa0005ae46
:020bfb0005ad46
:020bfc0005ac46
:020bfd0005ab46
:020bfe0005aa46
:020bff0005a946
:020c000005a746
:020c010005a646
:020c020005a546
:020c030005a446
:020c040005a346
:020c050005a246
:020c060005a146
:020c070005a046
:020c0800059f46
:020c0900059d47
:020c0a00059c47
:020c0b00059b47
:020c0c00059a47
:020c0d00059947
:020c0e00059847
:020c0f00059747
:020c1000059647
:020c1100059448
:020c1200059348
:020c1300059248
:020c1400059148
:020c1500059048
:020c1600058f48
:020c1700058e48
:020c1800058d48
:020c1900058b49
:020c1a00058a49
:020c1b00058949
:020c1c00058849
:020c1d00058749
:020c1e00058649
:020c1f00058549
:020c200005834a
:020c210005824a
:020c220005814a
:020c230005804a
:020c2400057f4a
:020c2500057e4a
:020c2600057d4a
:020c2700057c4a
:020c2800057a4b
:020c290005794b
:020c2a0005784b
:020c2b0005774b
:020c2c0005764b
:020c2d0005754b
:020c2e0005734c
:020c2f0005724c
:020c300005714c
:020c310005704c
:020c3200056f4c
:020c3300056e4c
:020c3400056d4c
:020c3500056b4d
:020c3600056a4d
:020c370005694d
:020c380005684d
:020c390005674d
:020c3a0005664d
:020c3b0005644e
:020c3c0005634e
:020c3d0005624e
:020c3e0005614e
:020c3f0005604e
:020c4000055f4e
:020c4100055e4e
:020c4200055c4f
:020c4300055b4f
:020c4400055a4f
:020c450005594f
:020c460005584f
:020c470005574f
:020c4800055550
:020c4900055450
:020c4a00055350
:020c4b00055250
:020c4c00055150
:020c4d00054f51
:020c4e00054e51
:020c4f00054d51
:020c5000054c51
:020c5100054b51
:020c5200054a51
:020c5300054852
:020c5400054752
:020c5500054652
:020c5600054552
:020c5700054452
:020c5800054352
:020c5900054153
:020c5a00054053
:020c5b00053f53
:020c5c00053e53
:020c5d00053d53
:020c5e00053b54
:020c5f00053a54
:020c6000053954
:020c6100053854
:020c6200053754
:020c6300053555
:020c6400053455
:020c6500053355
:020c6600053255
:020c6700053155
:020c6800053055
:020c6900052e56
:020c6a00052d56
:020c6b00052c56
:020c6c00052b56
:020c6d00052a56
:020c6e00052857
:020c6f00052757
:020c7000052657
:020c7100052557
:020c7200052457
:020c7300052258
:020c7400052158
:020c7500052058
:020c7600051f58
:020c7700051d59
:020c7800051c59
:020c7900051b59
:020c7a00051a59
:020c7b00051959
:020c7c0005175a
:020c7d0005165a
:020c7e0005155a
:020c7f0005145a
:020c800005135a
:020c810005115b
:020c820005105b
:020c8300050f5b
:020c8400050e5b
:020c8500050d5b
:020c8600050b5c
:020c8700050a5c
:020c880005095c
:020c890005085c
:020c8a0005065d
:020c8b0005055d
:020c8c0005045d
:020c8d0005035d
:020c8e0005025d
:020c8f0005005e
:020c900004ff5f
:020c910004fe5f
:020c920004fd5f
:020c930004fb60
:020c940004fa60
:020c950004f960
:020c960004f860
:020c970004f661
:020c980004f561
:020c990004f461
:020c9a0004f361
:020c9b0004f261
:020c9c0004f062
:020c9d0004ef62
:020c9e0004ee62
:020c9f0004ed62
:020ca00004eb63
:020ca10004ea63
:020ca20004e963
:020ca30004e863
:020ca40004e664
:020ca50004e564
:020ca60004e464
:020ca70004e364
:020ca80004e165
:020ca90004e065
:020caa0004df65
:020cab0004de65
:020cac0004dc66
:020cad0004db66
:020cae0004da66
:020caf0004d966
:020cb00004d767
:020cb10004d667
:020cb20004d567
:020cb30004d467
:020cb40004d268
:020cb50004d168
:020cb60004d068
:020cb70004cf68
:020cb80004cd69
:020cb90004cc69
:020cba0004cb69
:020cbb0004ca69
:020cbc0004c86a
:020cbd0004c76a
:020cbe0004c66a
:020cbf0004c56a
:020cc00004c36b
:020cc10004c26b
:020cc20004c16b
:020cc30004c06b
:020cc40004be6c
:020cc50004bd6c
:020cc60004bc6c
:020cc70004bb6c
:020cc80004b96d
:020cc90004b86d
:020cca0004b76d
:020ccb0004b56e
:020ccc0004b46e
:020ccd0004b36e
:020cce0004b26e
:020ccf0004b06f
:020cd00004af6f
:020cd10004ae6f
:020cd20004ad6f
:020cd30004ab70
:020cd40004aa70
:020cd50004a970
:020cd60004a771
:020cd70004a671
:020cd80004a571
:020cd90004a471
:020cda0004a272
:020cdb0004a172
:020cdc0004a072
:020cdd00049f72
:020cde00049d73
:020cdf00049c73
:020ce000049b73
:020ce100049974
:020ce200049874
:020ce300049774
:020ce400049674
:020ce500049475
:020ce600049375
:020ce700049275
:020ce800049076
:020ce900048f76
:020cea00048e76
:020ceb00048d76
:020cec00048b77
:020ced00048a77
:020cee00048977
:020cef00048778
:020cf000048678
:020cf100048578
:020cf200048379
:020cf300048279
:020cf400048179
:020cf500048079
:020cf600047e7a
:020cf700047d7a
:020cf800047c7a
:020cf900047a7b
:020cfa0004797b
:020cfb0004787b
:020cfc0004767c
:020cfd0004757c
:020cfe0004747c
:020cff0004737c
:020d000004717c
:020d010004707c
:020d0200046f7c
:020d0300046d7d
:020d0400046c7d
:020d0500046b7d
:020d060004697e
:020d070004687e
:020d080004677e
:020d090004657f
:020d0a0004647f
:020d0b0004637f
:020d0c0004627f
:020d0d00046080
:020d0e00045f80
:020d0f00045e80
:020d1000045c81
:020d1100045b81
:020d1200045a81
:020d1300045882
:020d1400045782
:020d1500045682
:020d1600045483
:020d1700045383
:020d1800045283
:020d1900045084
:020d1a00044f84
:020d1b00044e84
:020d1c00044c85
:020d1d00044b85
:020d1e00044a85
:020d1f00044886
:020d2000044786
:020d2100044686
:020d2200044487
:020d2300044387
:020d2400044287
:020d2500044088
:020d2600043f88
:020d2700043e88
:020d2800043d88
:020d2900043b89
:020d2a00043a89
:020d2b00043989
:020d2c0004378a
:020d2d0004368a
:020d2e0004358a
:020d2f0004338b
:020d300004328b
:020d310004308c
:020d3200042f8c
:020d3300042e8c
:020d3400042c8d
:020d3500042b8d
:020d3600042a8d
:020d370004288e
:020d380004278e
:020d390004268e
:020d3a0004248f
:020d3b0004238f
:020d3c0004228f
:020d3d00042090
:020d3e00041f90
:020d3f00041e90
:020d4000041c91
:020d4100041b91
:020d4200041a91
:020d4300041892
:020d4400041792
:020d4500041692
:020d4600041493
:020d4700041393
:020d4800041293
:020d4900041094
:020d4a00040f94
:020d4b00040e94
:020d4c00040c95
:020d4d00040b95
:020d4e00040996
:020d4f00040896
:020d5000040796
:020d5100040597
:020d5200040497
:020d5300040397
:020d5400040198
:020d5500040098
:020d560003ff99
:020d570003fd9a
:020d580003fc9a
:020d590003fb9a
:020d5a0003f99b
:020d5b0003f89b
:020d5c0003f69c
:020d5d0003f59c
:020d5e0003f49c
:020d5f0003f29d
:020d600003f19d
:020d610003f09d
:020d620003ee9e
:020d630003ed9e
:020d640003eb9f
:020d650003ea9f
:020d660003e99f
:020d670003e7a0
:020d680003e6a0
:020d690003e5a0
:020d6a0003e3a1
:020d6b0003e2a1
:020d6c0003e1a1
:020d6d0003dfa2
:020d6e0003dea2
:020d6f0003dca3
:020d700003dba3
:020d710003daa3
:020d720003d8a4
:020d730003d7a4
:020d740003d6a4
:020d750003d4a5
:020d760003d3a5
:020d770003d1a6
:020d780003d0a6
:020d790003cfa6
:020d7a0003cda7
:020d7b0003cca7
:020d7c0003caa8
:020d7d0003c9a8
:020d7e0003c8a8
:020d7f0003c6a9
:020d800003c5a9
:020d810003c4a9
:020d820003c2aa
:020d830003c1aa
:020d840003bfab
:020d850003beab
:020d860003bdab
:020d870003bbac
:020d880003baac
:020d890003b8ad
:020d8a0003b7ad
:020d8b0003b6ad
:020d8c0003b4ae
:020d8d0003b3ae
:020d8e0003b2ae
:020d8f0003b0af
:020d900003afaf
:020d910003adb0
:020d920003acb0
:020d930003abb0
:020d940003a9b1
:020d950003a8b1
:020d960003a6b2
:020d970003a5b2
:020d980003a4b2
:020d990003a2b3
:020d9a0003a1b3
:020d9b00039fb4
:020d9c00039eb4
:020d9d00039db4
:020d9e00039bb5
:020d9f00039ab5
:020da0000398b6
:020da1000397b6
:020da2000396b6
:020da3000394b7
:020da4000393b7
:020da5000391b8
:020da6000390b8
:020da700038fb8
:020da800038db9
:020da900038cb9
:020daa00038aba
:020dab000389ba
:020dac000387bb
:020dad000386bb
:020dae000385bb
:020daf000383bc
:020db0000382bc
:020db1000380bd
:020db200037fbd
:020db300037ebd
:020db400037cbe
:020db500037bbe
:020db6000379bf
:020db7000378bf
:020db8000377bf
:020db9000375c0
:020dba000374c0
:020dbb000372c1
:020dbc000371c1
:020dbd00036fc2
:020dbe00036ec2
:020dbf00036dc2
:020dc000036bc3
:020dc100036ac3
:020dc2000368c4
:020dc3000367c4
:020dc4000366c4
:020dc5000364c5
:020dc6000363c5
:020dc7000361c6
:020dc8000360c6
:020dc900035ec7
:020dca00035dc7
:020dcb00035cc7
:020dcc00035ac8
:020dcd000359c8
:020dce000357c9
:020dcf000356c9
:020dd0000354ca
:020dd1000353ca
:020dd2000352ca
:020dd3000350cb
:020dd400034fcb
:020dd500034dcc
:020dd600034ccc
:020dd700034acd
:020dd8000349cd
:020dd9000348cd
:020dda000346ce
:020ddb000345ce
:020ddc000343cf
:020ddd000342cf
:020dde000340d0
:020ddf00033fd0
:020de000033ed0
:020de100033cd1
:020de200033bd1
:020de3000339d2
:020de4000338d2
:020de5000336d3
:020de6000335d3
:020de7000333d4
:020de8000332d4
:020de9000331d4
:020dea00032fd5
:020deb00032ed5
:020dec00032cd6
:020ded00032bd6
:020dee000329d7
:020def000328d7
:020df0000327d7
:020df1000325d8
:020df2000324d8
:020df3000322d9
:020df4000321d9
:020df500031fda
:020df600031eda
:020df700031cdb
:020df800031bdb
:020df9000319dc
:020dfa000318dc
:020dfb000317dc
:020dfc000315dd
:020dfd000314dd
:020dfe000312de
:020dff000311de
:020e0000030fde
:020e0100030ede
:020e0200030cdf
:020e0300030bdf
:020e0400030adf
:020e05000308e0
:020e06000307e0
:020e07000305e1
:020e08000304e1
:020e09000302e2
:020e0a000301e2
:020e0b0002ffe4
:020e0c0002fee4
:020e0d0002fce5
:020e0e0002fbe5
:020e0f0002fae5
:020e100002f8e6
:020e110002f7e6
:020e120002f5e7
:020e130002f4e7
:020e140002f2e8
:020e150002f1e8
:020e160002efe9
:020e170002eee9
:020e180002ecea
:020e190002ebea
:020e1a0002e9eb
:020e1b0002e8eb
:020e1c0002e7eb
:020e1d0002e5ec
:020e1e0002e4ec
:020e1f0002e2ed
:020e200002e1ed
:020e210002dfee
:020e220002deee
:020e230002dcef
:020e240002dbef
:020e250002d9f0
:020e260002d8f0
:020e270002d6f1
:020e280002d5f1
:020e290002d4f1
:020e2a0002d2f2
:020e2b0002d1f2
:020e2c0002cff3
:020e2d0002cef3
:020e2e0002ccf4
:020e2f0002cbf4
:020e300002c9f5
:020e310002c8f5
:020e320002c6f6
:020e330002c5f6
:020e340002c3f7
:020e350002c2f7
:020e360002c0f8
:020e370002bff8
:020e380002bdf9
:020e390002bcf9
:020e3a0002bafa
:020e3b0002b9fa
:020e3c0002b8fa
:020e3d0002b6fb
:020e3e0002b5fb
:020e3f0002b3fc
:020e400002b2fc
:020e410002b0fd
:020e420002affd
:020e430002adfe
:020e440002acfe
:020e450002aaff
:020e460002a9ff
:020e470002a700
:020e480002a600
:020e490002a401
:020e4a0002a301
:020e4b0002a102
:020e4c0002a002
:020e4d00029e03
:020e4e00029d03
:020e4f00029b04
:020e5000029a04
:020e5100029805
:020e5200029705
:020e5300029506
:020e5400029406
:020e5500029207
:020e5600029107
:020e5700029007
:020e5800028e08
:020e5900028d08
:020e5a00028b09
:020e5b00028a09
:020e5c0002880a
:020e5d0002870a
:020e5e0002850b
:020e5f0002840b
:020e600002820c
:020e610002810c
:020e6200027f0d
:020e6300027e0d
:020e6400027c0e
:020e6500027b0e
:020e660002790f
:020e670002780f
:020e6800027610
:020e6900027510
:020e6a00027311
:020e6b00027211
:020e6c00027012
:020e6d00026f12
:020e6e00026d13
:020e6f00026c13
:020e7000026a14
:020e7100026914
:020e7200026715
:020e7300026615
:020e7400026416
:020e7500026316
:020e7600026117
:020e7700026017
:020e7800025e18
:020e7900025d18
:020e7a00025b19
:020e7b00025a19
:020e7c0002581a
:020e7d0002571a
:020e7e0002551b
:020e7f0002541b
:020e800002521c
:020e810002511c
:020e8200024f1d
:020e8300024e1d
:020e8400024c1e
:020e8500024b1e
:020e860002491f
:020e870002481f
:020e8800024620
:020e8900024520
:020e8a00024321
:020e8b00024221
:020e8c00024022
:020e8d00023f22
:020e8e00023d23
:020e8f00023c23
:020e9000023a24
:020e9100023924
:020e9200023725
:020e9300023625
:020e9400023426
:020e9500023326
:020e9600023127
:020e9700023027
:020e9800022e28
:020e9900022d28
:020e9a00022b29
:020e9b00022a29
:020e9c0002282a
:020e9d0002262b
:020e9e0002252b
:020e9f0002232c
:020ea00002222c
:020ea10002202d
:020ea200021f2d
:020ea300021d2e
:020ea400021c2e
:020ea500021a2f
:020ea60002192f
:020ea700021730
:020ea800021630
:020ea900021431
:020eaa00021331
:020eab00021132
:020eac00021032
:020ead00020e33
:020eae00020d33
:020eaf00020b34
:020eb000020a34
:020eb100020835
:020eb200020735
:020eb300020536
:020eb400020436
:020eb500020237
:020eb600020137
:020eb70001ff39
:020eb80001fe39
:020eb90001fc3a
:020eba0001fb3a
:020ebb0001f93b
:020ebc0001f73c
:020ebd0001f63c
:020ebe0001f43d
:020ebf0001f33d
:020ec00001f13e
:020ec10001f03e
:020ec20001ee3f
:020ec30001ed3f
:020ec40001eb40
:020ec50001ea40
:020ec60001e841
:020ec70001e741
:020ec80001e542
:020ec90001e442
:020eca0001e243
:020ecb0001e143
:020ecc0001df44
:020ecd0001de44
:020ece0001dc45
:020ecf0001db45
:020ed00001d946
:020ed10001d747
:020ed20001d647
:020ed30001d448
:020ed40001d348
:020ed50001d149
:020ed60001d049
:020ed70001ce4a
:020ed80001cd4a
:020ed90001cb4b
:020eda0001ca4b
:020edb0001c84c
:020edc0001c74c
:020edd0001c54d
:020ede0001c44d
:020edf0001c24e
:020ee00001c14e
:020ee10001bf4f
:020ee20001bd50
:020ee30001bc50
:020ee40001ba51
:020ee50001b951
:020ee60001b752
:020ee70001b652
:020ee80001b453
:020ee90001b353
:020eea0001b154
:020eeb0001b054
:020eec0001ae55
:020eed0001ad55
:020eee0001ab56
:020eef0001a957
:020ef00001a857
:020ef10001a658
:020ef20001a558
:020ef30001a359
:020ef40001a259
:020ef50001a05a
:020ef600019f5a
:020ef700019d5b
:020ef800019c5b
:020ef900019a5c
:020efa0001995c
:020efb0001975d
:020efc0001965d
:020efd0001945e
:020efe0001925f
:020eff0001915f
:020f0000018f5f
:020f0100018e5f
:020f0200018c60
:020f0300018b60
:020f0400018961
:020f0500018861
:020f0600018662
:020f0700018562
:020f0800018363
:020f0900018164
:020f0a00018064
:020f0b00017e65
:020f0c00017d65
:020f0d00017b66
:020f0e00017a66
:020f0f00017867
:020f1000017767
:020f1100017568
:020f1200017468
:020f1300017269
:020f1400017169
:020f1500016f6a
:020f1600016d6b
:020f1700016c6b
:020f1800016a6c
:020f190001696c
:020f1a0001676d
:020f1b0001666d
:020f1c0001646e
:020f1d0001636e
:020f1e0001616f
:020f1f0001606f
:020f2000015e70
:020f2100015c71
:020f2200015b71
:020f2300015972
:020f2400015872
:020f2500015673
:020f2600015573
:020f2700015374
:020f2800015274
:020f2900015075
:020f2a00014e76
:020f2b00014d76
:020f2c00014b77
:020f2d00014a77
:020f2e00014878
:020f2f00014778
:020f3000014579
:020f3100014479
:020f320001427a
:020f330001417a
:020f3400013f7b
:020f3500013d7c
:020f3600013c7c
:020f3700013a7d
:020f380001397d
:020f390001377e
:020f3a0001367e
:020f3b0001347f
:020f3c0001337f
:020f3d00013180
:020f3e00012f81
:020f3f00012e81
:020f4000012c82
:020f4100012b82
:020f4200012983
:020f4300012883
:020f4400012684
:020f4500012584
:020f4600012385
:020f4700012186
:020f4800012086
:020f4900011e87
:020f4a00011d87
:020f4b00011b88
:020f4c00011a88
:020f4d00011889
:020f4e00011789
:020f4f0001158a
:020f500001138b
:020f510001128b
:020f520001108c
:020f5300010f8c
:020f5400010d8d
:020f5500010c8d
:020f5600010a8e
:020f570001098e
:020f580001078f
:020f5900010590
:020f5a00010490
:020f5b00010291
:020f5c00010191
:020f5d0000ff93
:020f5e0000fe93
:020f5f0000fc94
:020f600000fb94
:020f610000f995
:020f620000f796
:020f630000f696
:020f640000f497
:020f650000f397
:020f660000f198
:020f670000f098
:020f680000ee99
:020f690000ed99
:020f6a0000eb9a
:020f6b0000e99b
:020f6c0000e89b
:020f6d0000e69c
:020f6e0000e59c
:020f6f0000e39d
:020f700000e29d
:020f710000e09e
:020f720000df9e
:020f730000dd9f
:020f740000dba0
:020f750000daa0
:020f760000d8a1
:020f770000d7a1
:020f780000d5a2
:020f790000d4a2
:020f7a0000d2a3
:020f7b0000d0a4
:020f7c0000cfa4
:020f7d0000cda5
:020f7e0000cca5
:020f7f0000caa6
:020f800000c9a6
:020f810000c7a7
:020f820000c6a7
:020f830000c4a8
:020f840000c2a9
:020f850000c1a9
:020f860000bfaa
:020f870000beaa
:020f880000bcab
:020f890000bbab
:020f8a0000b9ac
:020f8b0000b7ad
:020f8c0000b6ad
:020f8d0000b4ae
:020f8e0000b3ae
:020f8f0000b1af
:020f900000b0af
:020f910000aeb0
:020f920000acb1
:020f930000abb1
:020f940000a9b2
:020f950000a8b2
:020f960000a6b3
:020f970000a5b3
:020f980000a3b4
:020f990000a2b4
:020f9a0000a0b5
:020f9b00009eb6
:020f9c00009db6
:020f9d00009bb7
:020f9e00009ab7
:020f9f000098b8
